{
  "contractName": "ERC721Connector",
  "abi": [
    {
      "inputs": [
        {
          "internalType": "string",
          "name": "name",
          "type": "string"
        },
        {
          "internalType": "string",
          "name": "symbol",
          "type": "string"
        }
      ],
      "stateMutability": "nonpayable",
      "type": "constructor"
    },
    {
      "anonymous": false,
      "inputs": [
        {
          "indexed": true,
          "internalType": "address",
          "name": "address_from",
          "type": "address"
        },
        {
          "indexed": true,
          "internalType": "address",
          "name": "address_to",
          "type": "address"
        },
        {
          "indexed": true,
          "internalType": "uint256",
          "name": "tokenId",
          "type": "uint256"
        }
      ],
      "name": "Transfer",
      "type": "event"
    },
    {
      "inputs": [],
      "name": "name",
      "outputs": [
        {
          "internalType": "string",
          "name": "",
          "type": "string"
        }
      ],
      "stateMutability": "view",
      "type": "function"
    },
    {
      "inputs": [],
      "name": "symbol",
      "outputs": [
        {
          "internalType": "string",
          "name": "",
          "type": "string"
        }
      ],
      "stateMutability": "view",
      "type": "function"
    }
  ],
  "bytecode": "0x608060405234801561001057600080fd5b506040516104f63803806104f683398101604081905261002f91610128565b8181600061003d838261022d565b50600161004a828261022d565b50505050506102f2565b7f4e487b7100000000000000000000000000000000000000000000000000000000600052604160045260246000fd5b600082601f83011261009457600080fd5b81516001604060020a03808211156100ae576100ae610054565b604051601f8301601f19908116603f011681019082821181831017156100d6576100d6610054565b816040528381526020925086838588010111156100f257600080fd5b600091505b8382101561011457858201830151818301840152908201906100f7565b600093810190920192909252949350505050565b6000806040838503121561013b57600080fd5b82516001604060020a038082111561015257600080fd5b61015e86838701610083565b9350602085015191508082111561017457600080fd5b5061018185828601610083565b9150509250929050565b60028104600182168061019f57607f821691505b6020821081036101d8577f4e487b7100000000000000000000000000000000000000000000000000000000600052602260045260246000fd5b50919050565b601f821115610228576000818152602081206020601f860104810160208610156102055750805b6020601f860104820191505b8181101561022457828155600101610211565b5050505b505050565b81516001604060020a0381111561024657610246610054565b61025a81610254845461018b565b846101de565b602080601f83116001811461029357600084156102775750858301515b60028086026008870290910a6000190419821617865550610224565b600085815260208120601f198616915b828110156102c2578886015182559484019460019091019084016102a3565b50858210156102e257878501516008601f88160260020a60001904191681555b5050505050600202600101905550565b6101f5806103016000396000f3fe608060405234801561001057600080fd5b5060043610610052577c0100000000000000000000000000000000000000000000000000000000600035046306fdde03811461005757806395d89b4114610075575b600080fd5b61005f61007d565b60405161006c919061011e565b60405180910390f35b61005f61010f565b60606000805461008c9061016c565b80601f01602080910402602001604051908101604052809291908181526020018280546100b89061016c565b80156101055780601f106100da57610100808354040283529160200191610105565b820191906000526020600020905b8154815290600101906020018083116100e857829003601f168201915b5050505050905090565b60606001805461008c9061016c565b600060208083528351808285015260005b8181101561014b5785810183015185820160400152820161012f565b506000604082860101526040601f19601f8301168501019250505092915050565b60028104600182168061018057607f821691505b6020821081036101b9577f4e487b7100000000000000000000000000000000000000000000000000000000600052602260045260246000fd5b5091905056fea2646970667358221220cfe41d61ee0cf03cf1007652c2aafc932894db7ac679bf0061a291e4f6759f7964736f6c63430008150033",
  "immutableReferences": {},
  "source": "// SPDX-License-Identifier: MIT \r\npragma solidity ^0.8.0;\r\n\r\nimport \"./ERC721Metadata.sol\";\r\nimport \"./ERC721.sol\";\r\n\r\ncontract ERC721Connector is ERC721Metadata, ERC721 {\r\n\r\n    constructor(string memory name, string memory symbol) ERC721Metadata(name, symbol){\r\n\r\n    }\r\n\r\n}\r\n\r\n\r\n\r\n\r\n\r\n\r\n\r\n",
  "sourcePath": "C:\\Users\\hector\\OneDrive\\Escritorio\\nft_marketplace repo\\nft-marketplace-starter-kit\\src\\contracts\\ERC721Connector.sol",
  "compiler": {
    "name": "solc",
    "version": "0.8.21+commit.d9974bed.Emscripten.clang"
  },
  "schemaVersion": "3.4.14",
  "updatedAt": "2023-07-24T18:15:20.172Z",
  "devdoc": {
    "kind": "dev",
    "methods": {},
    "version": 1
  },
  "userdoc": {
    "kind": "user",
    "methods": {},
    "version": 1
  }
}