{
  "contractName": "ERC721Enumerable",
  "abi": [
    {
      "anonymous": false,
      "inputs": [
        {
          "indexed": true,
          "internalType": "address",
          "name": "address_from",
          "type": "address"
        },
        {
          "indexed": true,
          "internalType": "address",
          "name": "address_to",
          "type": "address"
        },
        {
          "indexed": true,
          "internalType": "uint256",
          "name": "tokenId",
          "type": "uint256"
        }
      ],
      "name": "Transfer",
      "type": "event"
    },
    {
      "inputs": [
        {
          "internalType": "address",
          "name": "_owner",
          "type": "address"
        }
      ],
      "name": "balanceOf",
      "outputs": [
        {
          "internalType": "uint256",
          "name": "",
          "type": "uint256"
        }
      ],
      "stateMutability": "view",
      "type": "function"
    },
    {
      "inputs": [
        {
          "internalType": "uint256",
          "name": "_tokenId",
          "type": "uint256"
        }
      ],
      "name": "ownerOf",
      "outputs": [
        {
          "internalType": "address",
          "name": "",
          "type": "address"
        }
      ],
      "stateMutability": "view",
      "type": "function"
    },
    {
      "inputs": [],
      "name": "totalSupply",
      "outputs": [
        {
          "internalType": "uint256",
          "name": "",
          "type": "uint256"
        }
      ],
      "stateMutability": "view",
      "type": "function"
    },
    {
      "inputs": [],
      "name": "numberOftokensOwned",
      "outputs": [
        {
          "internalType": "uint256",
          "name": "",
          "type": "uint256"
        }
      ],
      "stateMutability": "view",
      "type": "function"
    },
    {
      "inputs": [
        {
          "internalType": "uint256",
          "name": "index",
          "type": "uint256"
        }
      ],
      "name": "tokenByIndex",
      "outputs": [
        {
          "internalType": "uint256",
          "name": "",
          "type": "uint256"
        }
      ],
      "stateMutability": "view",
      "type": "function"
    },
    {
      "inputs": [
        {
          "internalType": "uint256",
          "name": "index",
          "type": "uint256"
        },
        {
          "internalType": "address",
          "name": "owner",
          "type": "address"
        }
      ],
      "name": "tokenOfOwnerByIndex",
      "outputs": [
        {
          "internalType": "uint256",
          "name": "",
          "type": "uint256"
        }
      ],
      "stateMutability": "view",
      "type": "function"
    },
    {
      "inputs": [
        {
          "internalType": "address",
          "name": "owner",
          "type": "address"
        }
      ],
      "name": "listOfTokenOwned",
      "outputs": [
        {
          "internalType": "uint256[]",
          "name": "",
          "type": "uint256[]"
        }
      ],
      "stateMutability": "view",
      "type": "function"
    }
  ],
  "bytecode": "0x608060405234801561001057600080fd5b506104eb806100206000396000f3fe608060405234801561001057600080fd5b506004361061009a576000357c01000000000000000000000000000000000000000000000000000000009004806370a082311161007857806370a08231146100f45780639240f7a014610107578063a5bb827514610127578063c55d3d291461013a57600080fd5b806318160ddd1461009f5780634f6ccce7146100b65780636352211e146100c9575b600080fd5b6002545b6040519081526020015b60405180910390f35b6100a36100c43660046103bf565b61014f565b6100dc6100d73660046103bf565b6101d5565b604051600160a060020a0390911681526020016100ad565b6100a36101023660046103f4565b610243565b61011a6101153660046103f4565b6102ba565b6040516100ad9190610416565b6100a361013536600461045a565b610326565b336000908152600460205260409020546100a3565b600061015a60025490565b82106101b05760405160e560020a62461bcd02815260206004820152601c60248201527f676c6f62616c20696e646578206973206f7574206f662072656163680000000060448201526064015b60405180910390fd5b600282815481106101c3576101c3610486565b90600052602060002001549050919050565b600081815260208190526040812054600160a060020a03168061023d5760405160e560020a62461bcd02815260206004820181905260248201527f7468726f77696e6720796f75206675636b696e67206f75742c206d617465203260448201526064016101a7565b92915050565b6000600160a060020a03821661029e5760405160e560020a62461bcd02815260206004820152601e60248201527f7468726f77696e6720796f75206675636b696e67206f75742c206d617465000060448201526064016101a7565b50600160a060020a031660009081526001602052604090205490565b600160a060020a03811660009081526004602090815260409182902080548351818402810184019094528084526060939283018282801561031a57602002820191906000526020600020905b815481526020019060010190808311610306575b50505050509050919050565b600061033182610243565b83106103825760405160e560020a62461bcd02815260206004820152601b60248201527f6f776e657220696e646578206973206f7574206f66207265616368000000000060448201526064016101a7565b600160a060020a03821660009081526004602052604090208054849081106103ac576103ac610486565b9060005260206000200154905092915050565b6000602082840312156103d157600080fd5b5035919050565b8035600160a060020a03811681146103ef57600080fd5b919050565b60006020828403121561040657600080fd5b61040f826103d8565b9392505050565b6020808252825182820181905260009190848201906040850190845b8181101561044e57835183529284019291840191600101610432565b50909695505050505050565b6000806040838503121561046d57600080fd5b8235915061047d602084016103d8565b90509250929050565b7f4e487b7100000000000000000000000000000000000000000000000000000000600052603260045260246000fdfea2646970667358221220f9bb89fea58dc60a951097d42e8b6b57277e29617a1158697d4e56e9d75be3c464736f6c63430008150033",
  "immutableReferences": {},
  "source": "// SPDX-License-Identifier: MIT \r\npragma solidity >=0.4.22 < 0.9.0;\r\n\r\nimport './ERC721.sol';\r\n\r\n\r\ncontract ERC721Enumerable is ERC721 {\r\n\r\n    uint256[] private _allTokens;\r\n\r\n    // mapping from tokenId to position in _allTokens array\r\n\r\n    mapping(uint256 => uint256) private _allTokensIndex; \r\n\r\n    // mapping of owner to list of all owner token ids\r\n\r\n    mapping(address => uint256[]) private _ownedTokens;\r\n\r\n    // mapping from tokenID to index of the owner tokens list\r\n\r\n    mapping(uint256 => uint256) private _ownedTokensIndex;\r\n\r\n    /// @notice Count NFTs tracked by this contract\r\n    /// @return A count of valid NFTs tracked by this contract, where each one of\r\n    ///  them has an assigned and queryable owner not equal to the zero address\r\n    function totalSupply() public view returns (uint256){\r\n            return _allTokens.length;\r\n    }\r\n\r\n   \r\n        \r\n    function _mint(address address_to, uint256 tokenId) internal override(ERC721){\r\n        super._mint(address_to, tokenId);\r\n        _addTokensToAllTokenEnumeration(tokenId);\r\n        _addTokensToOwnerEnumeration(tokenId, address_to);\r\n\r\n    }\r\n\r\n    function _addTokensToAllTokenEnumeration(uint256 tokenId) private {\r\n        _allTokensIndex[tokenId] = _allTokens.length;\r\n        _allTokens.push(tokenId);\r\n    }\r\n\r\n    function _addTokensToOwnerEnumeration(uint256 tokenId, address address_owner) private {\r\n       _ownedTokensIndex[tokenId] = _ownedTokens[address_owner].length;\r\n       _ownedTokens[address_owner].push(tokenId);     \r\n    }\r\n\r\n    function numberOftokensOwned() external view returns(uint256){\r\n        address owner = msg.sender;\r\n        return _ownedTokens[owner].length;\r\n\r\n    }\r\n    function tokenByIndex(uint256 index) external view returns(uint256) {\r\n            require(index < totalSupply(), \"global index is out of reach\");\r\n            return _allTokens[index];\r\n    }\r\n\r\n    function tokenOfOwnerByIndex(uint256 index, address owner) external view returns(uint256){\r\n        require(index< balanceOf(owner), \"owner index is out of reach\");\r\n        return _ownedTokens[owner][index];\r\n\r\n    }\r\n    function listOfTokenOwned(address owner) external view returns(uint256[] memory) {\r\n        return _ownedTokens[owner];\r\n    }\r\n    \r\n    \r\n\r\n}",
  "sourcePath": "C:\\Users\\hector\\OneDrive\\Escritorio\\nft_marketplace repo\\nft-marketplace-starter-kit\\src\\contracts\\ERC721Enumerable.sol",
  "compiler": {
    "name": "solc",
    "version": "0.8.21+commit.d9974bed.Emscripten.clang"
  },
  "schemaVersion": "3.4.14",
  "updatedAt": "2023-07-29T14:58:58.637Z",
  "devdoc": {
    "kind": "dev",
    "methods": {
      "balanceOf(address)": {
        "details": "NFTs assigned to the zero address are considered invalid, and this  function throws for queries about the zero address.",
        "params": {
          "_owner": "An address for whom to query the balance"
        },
        "returns": {
          "_0": "The number of NFTs owned by `_owner`, possibly zero"
        }
      },
      "ownerOf(uint256)": {
        "details": "NFTs assigned to zero address are considered invalid, and queries  about them do throw.",
        "params": {
          "_tokenId": "The identifier for an NFT"
        },
        "returns": {
          "_0": "The address of the owner of the NFT"
        }
      },
      "totalSupply()": {
        "returns": {
          "_0": "A count of valid NFTs tracked by this contract, where each one of  them has an assigned and queryable owner not equal to the zero address"
        }
      }
    },
    "version": 1
  },
  "userdoc": {
    "kind": "user",
    "methods": {
      "balanceOf(address)": {
        "notice": "Count all NFTs assigned to an owner"
      },
      "ownerOf(uint256)": {
        "notice": "Find the owner of an NFT"
      },
      "totalSupply()": {
        "notice": "Count NFTs tracked by this contract"
      }
    },
    "version": 1
  }
}