{
  "contractName": "ERC721Connector",
  "abi": [
    {
      "inputs": [
        {
          "internalType": "string",
          "name": "name",
          "type": "string"
        },
        {
          "internalType": "string",
          "name": "symbol",
          "type": "string"
        }
      ],
      "stateMutability": "nonpayable",
      "type": "constructor"
    },
    {
      "anonymous": false,
      "inputs": [
        {
          "indexed": true,
          "internalType": "address",
          "name": "address_from",
          "type": "address"
        },
        {
          "indexed": true,
          "internalType": "address",
          "name": "address_to",
          "type": "address"
        },
        {
          "indexed": true,
          "internalType": "uint256",
          "name": "tokenId",
          "type": "uint256"
        }
      ],
      "name": "Transfer",
      "type": "event"
    },
    {
      "inputs": [
        {
          "internalType": "address",
          "name": "_owner",
          "type": "address"
        }
      ],
      "name": "balanceOf",
      "outputs": [
        {
          "internalType": "uint256",
          "name": "",
          "type": "uint256"
        }
      ],
      "stateMutability": "view",
      "type": "function"
    },
    {
      "inputs": [
        {
          "internalType": "address",
          "name": "owner",
          "type": "address"
        }
      ],
      "name": "listOfTokenOwned",
      "outputs": [
        {
          "internalType": "uint256[]",
          "name": "",
          "type": "uint256[]"
        }
      ],
      "stateMutability": "view",
      "type": "function"
    },
    {
      "inputs": [],
      "name": "name",
      "outputs": [
        {
          "internalType": "string",
          "name": "",
          "type": "string"
        }
      ],
      "stateMutability": "view",
      "type": "function"
    },
    {
      "inputs": [],
      "name": "numberOftokensOwned",
      "outputs": [
        {
          "internalType": "uint256",
          "name": "",
          "type": "uint256"
        }
      ],
      "stateMutability": "view",
      "type": "function"
    },
    {
      "inputs": [
        {
          "internalType": "uint256",
          "name": "_tokenId",
          "type": "uint256"
        }
      ],
      "name": "ownerOf",
      "outputs": [
        {
          "internalType": "address",
          "name": "",
          "type": "address"
        }
      ],
      "stateMutability": "view",
      "type": "function"
    },
    {
      "inputs": [],
      "name": "symbol",
      "outputs": [
        {
          "internalType": "string",
          "name": "",
          "type": "string"
        }
      ],
      "stateMutability": "view",
      "type": "function"
    },
    {
      "inputs": [
        {
          "internalType": "uint256",
          "name": "index",
          "type": "uint256"
        }
      ],
      "name": "tokenByIndex",
      "outputs": [
        {
          "internalType": "uint256",
          "name": "",
          "type": "uint256"
        }
      ],
      "stateMutability": "view",
      "type": "function"
    },
    {
      "inputs": [
        {
          "internalType": "uint256",
          "name": "index",
          "type": "uint256"
        },
        {
          "internalType": "address",
          "name": "owner",
          "type": "address"
        }
      ],
      "name": "tokenOfOwnerByIndex",
      "outputs": [
        {
          "internalType": "uint256",
          "name": "",
          "type": "uint256"
        }
      ],
      "stateMutability": "view",
      "type": "function"
    },
    {
      "inputs": [],
      "name": "totalSupply",
      "outputs": [
        {
          "internalType": "uint256",
          "name": "",
          "type": "uint256"
        }
      ],
      "stateMutability": "view",
      "type": "function"
    }
  ],
  "bytecode": "0x60806040523480156200001157600080fd5b50604051620009943803806200099483398101604081905262000034916200013c565b818160006200004483826200024e565b5060016200005382826200024e565b505050505062000320565b7f4e487b7100000000000000000000000000000000000000000000000000000000600052604160045260246000fd5b600082601f8301126200009f57600080fd5b81516001604060020a0380821115620000bc57620000bc6200005e565b604051601f8301601f19908116603f01168101908282118183101715620000e757620000e76200005e565b816040528381526020925086838588010111156200010457600080fd5b600091505b8382101562000128578582018301518183018401529082019062000109565b600093810190920192909252949350505050565b600080604083850312156200015057600080fd5b82516001604060020a03808211156200016857600080fd5b62000176868387016200008d565b935060208501519150808211156200018d57600080fd5b506200019c858286016200008d565b9150509250929050565b600281046001821680620001bb57607f821691505b602082108103620001f5577f4e487b7100000000000000000000000000000000000000000000000000000000600052602260045260246000fd5b50919050565b601f82111562000249576000818152602081206020601f86010481016020861015620002245750805b6020601f860104820191505b81811015620002455782815560010162000230565b5050505b505050565b81516001604060020a038111156200026a576200026a6200005e565b62000282816200027b8454620001a6565b84620001fb565b602080601f831160018114620002be5760008415620002a15750858301515b60028086026008870290910a600019041982161786555062000245565b600085815260208120601f198616915b82811015620002ef57888601518255948401946001909101908401620002ce565b50858210156200031057878501516008601f88160260020a60001904191681555b5050505050600202600101905550565b61066480620003306000396000f3fe608060405234801561001057600080fd5b50600436106100b0576000357c01000000000000000000000000000000000000000000000000000000009004806370a082311161008357806370a08231146101235780639240f7a01461013657806395d89b4114610156578063a5bb82751461015e578063c55d3d291461017157600080fd5b806306fdde03146100b557806318160ddd146100d35780634f6ccce7146100e55780636352211e146100f8575b600080fd5b6100bd610186565b6040516100ca9190610497565b60405180910390f35b6004545b6040519081526020016100ca565b6100d76100f33660046104e5565b610218565b61010b6101063660046104e5565b61029e565b604051600160a060020a0390911681526020016100ca565b6100d761013136600461051a565b61030c565b61014961014436600461051a565b610383565b6040516100ca919061053c565b6100bd6103ef565b6100d761016c366004610580565b6103fe565b336000908152600660205260409020546100d7565b606060008054610195906105ac565b80601f01602080910402602001604051908101604052809291908181526020018280546101c1906105ac565b801561020e5780601f106101e35761010080835404028352916020019161020e565b820191906000526020600020905b8154815290600101906020018083116101f157829003601f168201915b5050505050905090565b600061022360045490565b82106102795760405160e560020a62461bcd02815260206004820152601c60248201527f676c6f62616c20696e646578206973206f7574206f662072656163680000000060448201526064015b60405180910390fd5b6004828154811061028c5761028c6105ff565b90600052602060002001549050919050565b600081815260026020526040812054600160a060020a0316806103065760405160e560020a62461bcd02815260206004820181905260248201527f7468726f77696e6720796f75206675636b696e67206f75742c206d61746520326044820152606401610270565b92915050565b6000600160a060020a0382166103675760405160e560020a62461bcd02815260206004820152601e60248201527f7468726f77696e6720796f75206675636b696e67206f75742c206d61746500006044820152606401610270565b50600160a060020a031660009081526003602052604090205490565b600160a060020a0381166000908152600660209081526040918290208054835181840281018401909452808452606093928301828280156103e357602002820191906000526020600020905b8154815260200190600101908083116103cf575b50505050509050919050565b606060018054610195906105ac565b60006104098261030c565b831061045a5760405160e560020a62461bcd02815260206004820152601b60248201527f6f776e657220696e646578206973206f7574206f6620726561636800000000006044820152606401610270565b600160a060020a0382166000908152600660205260409020805484908110610484576104846105ff565b9060005260206000200154905092915050565b600060208083528351808285015260005b818110156104c4578581018301518582016040015282016104a8565b506000604082860101526040601f19601f8301168501019250505092915050565b6000602082840312156104f757600080fd5b5035919050565b8035600160a060020a038116811461051557600080fd5b919050565b60006020828403121561052c57600080fd5b610535826104fe565b9392505050565b6020808252825182820181905260009190848201906040850190845b8181101561057457835183529284019291840191600101610558565b50909695505050505050565b6000806040838503121561059357600080fd5b823591506105a3602084016104fe565b90509250929050565b6002810460018216806105c057607f821691505b6020821081036105f9577f4e487b7100000000000000000000000000000000000000000000000000000000600052602260045260246000fd5b50919050565b7f4e487b7100000000000000000000000000000000000000000000000000000000600052603260045260246000fdfea26469706673582212202ae58e4d608944fdfede943743759e271dfc26d8cd4e65249d7473ccef3a18ea64736f6c63430008150033",
  "immutableReferences": {},
  "source": "// SPDX-License-Identifier: MIT \r\npragma solidity ^0.8.0;\r\n\r\nimport \"./ERC721Metadata.sol\";\r\nimport \"./ERC721Enumerable.sol\";\r\n\r\ncontract ERC721Connector is ERC721Metadata, ERC721Enumerable {\r\n\r\n    constructor(string memory name, string memory symbol) ERC721Metadata(name, symbol){\r\n\r\n    }\r\n\r\n}\r\n\r\n\r\n\r\n\r\n\r\n\r\n\r\n",
  "sourcePath": "C:\\Users\\hector\\OneDrive\\Escritorio\\nft_marketplace repo\\nft-marketplace-starter-kit\\src\\contracts\\ERC721Connector.sol",
  "compiler": {
    "name": "solc",
    "version": "0.8.21+commit.d9974bed.Emscripten.clang"
  },
  "schemaVersion": "3.4.14",
  "updatedAt": "2023-07-29T14:58:58.623Z",
  "devdoc": {
    "kind": "dev",
    "methods": {
      "balanceOf(address)": {
        "details": "NFTs assigned to the zero address are considered invalid, and this  function throws for queries about the zero address.",
        "params": {
          "_owner": "An address for whom to query the balance"
        },
        "returns": {
          "_0": "The number of NFTs owned by `_owner`, possibly zero"
        }
      },
      "ownerOf(uint256)": {
        "details": "NFTs assigned to zero address are considered invalid, and queries  about them do throw.",
        "params": {
          "_tokenId": "The identifier for an NFT"
        },
        "returns": {
          "_0": "The address of the owner of the NFT"
        }
      },
      "totalSupply()": {
        "returns": {
          "_0": "A count of valid NFTs tracked by this contract, where each one of  them has an assigned and queryable owner not equal to the zero address"
        }
      }
    },
    "version": 1
  },
  "userdoc": {
    "kind": "user",
    "methods": {
      "balanceOf(address)": {
        "notice": "Count all NFTs assigned to an owner"
      },
      "ownerOf(uint256)": {
        "notice": "Find the owner of an NFT"
      },
      "totalSupply()": {
        "notice": "Count NFTs tracked by this contract"
      }
    },
    "version": 1
  }
}