{
  "contractName": "ERC721Enumerable",
  "abi": [
    {
      "anonymous": false,
      "inputs": [
        {
          "indexed": true,
          "internalType": "address",
          "name": "address_from",
          "type": "address"
        },
        {
          "indexed": true,
          "internalType": "address",
          "name": "address_to",
          "type": "address"
        },
        {
          "indexed": true,
          "internalType": "uint256",
          "name": "tokenId",
          "type": "uint256"
        }
      ],
      "name": "Transfer",
      "type": "event"
    },
    {
      "inputs": [
        {
          "internalType": "address",
          "name": "_owner",
          "type": "address"
        }
      ],
      "name": "balanceOf",
      "outputs": [
        {
          "internalType": "uint256",
          "name": "",
          "type": "uint256"
        }
      ],
      "stateMutability": "view",
      "type": "function"
    },
    {
      "inputs": [
        {
          "internalType": "uint256",
          "name": "_tokenId",
          "type": "uint256"
        }
      ],
      "name": "ownerOf",
      "outputs": [
        {
          "internalType": "address",
          "name": "",
          "type": "address"
        }
      ],
      "stateMutability": "view",
      "type": "function"
    },
    {
      "inputs": [
        {
          "internalType": "address",
          "name": "_from",
          "type": "address"
        },
        {
          "internalType": "address",
          "name": "_to",
          "type": "address"
        },
        {
          "internalType": "uint256",
          "name": "_tokenId",
          "type": "uint256"
        }
      ],
      "name": "transferFrom",
      "outputs": [],
      "stateMutability": "nonpayable",
      "type": "function"
    },
    {
      "inputs": [],
      "name": "totalSupply",
      "outputs": [
        {
          "internalType": "uint256",
          "name": "",
          "type": "uint256"
        }
      ],
      "stateMutability": "view",
      "type": "function"
    },
    {
      "inputs": [],
      "name": "numberOftokensOwned",
      "outputs": [
        {
          "internalType": "uint256",
          "name": "",
          "type": "uint256"
        }
      ],
      "stateMutability": "view",
      "type": "function"
    },
    {
      "inputs": [
        {
          "internalType": "uint256",
          "name": "index",
          "type": "uint256"
        }
      ],
      "name": "tokenByIndex",
      "outputs": [
        {
          "internalType": "uint256",
          "name": "",
          "type": "uint256"
        }
      ],
      "stateMutability": "view",
      "type": "function"
    },
    {
      "inputs": [
        {
          "internalType": "uint256",
          "name": "index",
          "type": "uint256"
        },
        {
          "internalType": "address",
          "name": "owner",
          "type": "address"
        }
      ],
      "name": "tokenOfOwnerByIndex",
      "outputs": [
        {
          "internalType": "uint256",
          "name": "",
          "type": "uint256"
        }
      ],
      "stateMutability": "view",
      "type": "function"
    },
    {
      "inputs": [
        {
          "internalType": "address",
          "name": "owner",
          "type": "address"
        }
      ],
      "name": "listOfTokenOwned",
      "outputs": [
        {
          "internalType": "uint256[]",
          "name": "",
          "type": "uint256[]"
        }
      ],
      "stateMutability": "view",
      "type": "function"
    }
  ],
  "bytecode": "0x608060405234801561001057600080fd5b50610760806100206000396000f3fe608060405234801561001057600080fd5b50600436106100a5576000357c01000000000000000000000000000000000000000000000000000000009004806370a082311161007857806370a08231146101145780639240f7a014610127578063a5bb827514610147578063c55d3d291461015a57600080fd5b806318160ddd146100aa57806323b872dd146100c15780634f6ccce7146100d65780636352211e146100e9575b600080fd5b6003545b6040519081526020015b60405180910390f35b6100d46100cf3660046105bf565b61016f565b005b6100ae6100e43660046105fb565b61017f565b6100fc6100f73660046105fb565b610205565b604051600160a060020a0390911681526020016100b8565b6100ae610122366004610614565b610273565b61013a610135366004610614565b6102ea565b6040516100b89190610636565b6100ae61015536600461067a565b610356565b336000908152600560205260409020546100ae565b61017a8383836103ef565b505050565b600061018a60035490565b82106101e05760405160e560020a62461bcd02815260206004820152601c60248201527f676c6f62616c20696e646578206973206f7574206f662072656163680000000060448201526064015b60405180910390fd5b600382815481106101f3576101f36106a6565b90600052602060002001549050919050565b600081815260208190526040812054600160a060020a03168061026d5760405160e560020a62461bcd02815260206004820181905260248201527f7468726f77696e6720796f75206675636b696e67206f75742c206d617465203260448201526064016101d7565b92915050565b6000600160a060020a0382166102ce5760405160e560020a62461bcd02815260206004820152601e60248201527f7468726f77696e6720796f75206675636b696e67206f75742c206d617465000060448201526064016101d7565b50600160a060020a031660009081526001602052604090205490565b600160a060020a03811660009081526005602090815260409182902080548351818402810184019094528084526060939283018282801561034a57602002820191906000526020600020905b815481526020019060010190808311610336575b50505050509050919050565b600061036182610273565b83106103b25760405160e560020a62461bcd02815260206004820152601b60248201527f6f776e657220696e646578206973206f7574206f66207265616368000000000060448201526064016101d7565b600160a060020a03821660009081526005602052604090208054849081106103dc576103dc6106a6565b9060005260206000200154905092915050565b600160a060020a0382166104485760405160e560020a62461bcd02815260206004820152601460248201527f5265636569766572206e6f7420616c6c6f77656400000000000000000000000060448201526064016101d7565b600081815260208190526040902054600160a060020a038481169116146104da5760405160e560020a62461bcd02815260206004820152602760248201527f796f752063616e74207472616e66657220736f6d657468696e6720796f75206460448201527f6f6e74206f776e0000000000000000000000000000000000000000000000000060648201526084016101d7565b600160a060020a03831660009081526001602081905260408220805491929091610505908490610704565b9091555050600160a060020a03821660009081526001602081905260408220805491929091610535908490610717565b9091555050600081815260208190526040808220805473ffffffffffffffffffffffffffffffffffffffff1916600160a060020a0386811691821790925591518493918716917fddf252ad1be2c89b69c2b068fc378daa952ba7f163c4a11628f55a4df523b3ef91a4505050565b8035600160a060020a03811681146105ba57600080fd5b919050565b6000806000606084860312156105d457600080fd5b6105dd846105a3565b92506105eb602085016105a3565b9150604084013590509250925092565b60006020828403121561060d57600080fd5b5035919050565b60006020828403121561062657600080fd5b61062f826105a3565b9392505050565b6020808252825182820181905260009190848201906040850190845b8181101561066e57835183529284019291840191600101610652565b50909695505050505050565b6000806040838503121561068d57600080fd5b8235915061069d602084016105a3565b90509250929050565b7f4e487b7100000000000000000000000000000000000000000000000000000000600052603260045260246000fd5b7f4e487b7100000000000000000000000000000000000000000000000000000000600052601160045260246000fd5b8181038181111561026d5761026d6106d5565b8082018082111561026d5761026d6106d556fea2646970667358221220937bc5fbe4bd00d2ffb68798c429c3513f988e21c3af1e4ebd2311bf9837402b64736f6c63430008150033",
  "immutableReferences": {},
  "source": "// SPDX-License-Identifier: MIT \r\npragma solidity >=0.4.22 < 0.9.0;\r\n\r\nimport './ERC721.sol';\r\n\r\n\r\ncontract ERC721Enumerable is ERC721 {\r\n\r\n    uint256[] private _allTokens;\r\n\r\n    // mapping from tokenId to position in _allTokens array\r\n\r\n    mapping(uint256 => uint256) private _allTokensIndex; \r\n\r\n    // mapping of owner to list of all owner token ids\r\n\r\n    mapping(address => uint256[]) private _ownedTokens;\r\n\r\n    // mapping from tokenID to index of the owner tokens list\r\n\r\n    mapping(uint256 => uint256) private _ownedTokensIndex;\r\n\r\n    /// @notice Count NFTs tracked by this contract\r\n    /// @return A count of valid NFTs tracked by this contract, where each one of\r\n    ///  them has an assigned and queryable owner not equal to the zero address\r\n    function totalSupply() public view returns (uint256){\r\n            return _allTokens.length;\r\n    }\r\n\r\n   \r\n        \r\n    function _mint(address address_to, uint256 tokenId) internal override(ERC721){\r\n        super._mint(address_to, tokenId);\r\n        _addTokensToAllTokenEnumeration(tokenId);\r\n        _addTokensToOwnerEnumeration(tokenId, address_to);\r\n\r\n    }\r\n\r\n    function _addTokensToAllTokenEnumeration(uint256 tokenId) private {\r\n        _allTokensIndex[tokenId] = _allTokens.length;\r\n        _allTokens.push(tokenId);\r\n    }\r\n\r\n    function _addTokensToOwnerEnumeration(uint256 tokenId, address address_owner) private {\r\n       _ownedTokensIndex[tokenId] = _ownedTokens[address_owner].length;\r\n       _ownedTokens[address_owner].push(tokenId);     \r\n    }\r\n\r\n    function numberOftokensOwned() external view returns(uint256){\r\n        address owner = msg.sender;\r\n        return _ownedTokens[owner].length;\r\n\r\n    }\r\n    function tokenByIndex(uint256 index) external view returns(uint256) {\r\n            require(index < totalSupply(), \"global index is out of reach\");\r\n            return _allTokens[index];\r\n    }\r\n\r\n    function tokenOfOwnerByIndex(uint256 index, address owner) external view returns(uint256){\r\n        require(index< balanceOf(owner), \"owner index is out of reach\");\r\n        return _ownedTokens[owner][index];\r\n\r\n    }\r\n    function listOfTokenOwned(address owner) external view returns(uint256[] memory) {\r\n        return _ownedTokens[owner];\r\n    }\r\n    \r\n    \r\n\r\n}",
  "sourcePath": "C:\\Users\\hector\\OneDrive\\Escritorio\\nft_marketplace repo\\nft-marketplace-starter-kit\\src\\contracts\\ERC721Enumerable.sol",
  "compiler": {
    "name": "solc",
    "version": "0.8.21+commit.d9974bed.Emscripten.clang"
  },
  "schemaVersion": "3.4.14",
  "updatedAt": "2023-07-29T17:28:47.802Z",
  "devdoc": {
    "kind": "dev",
    "methods": {
      "balanceOf(address)": {
        "details": "NFTs assigned to the zero address are considered invalid, and this  function throws for queries about the zero address.",
        "params": {
          "_owner": "An address for whom to query the balance"
        },
        "returns": {
          "_0": "The number of NFTs owned by `_owner`, possibly zero"
        }
      },
      "ownerOf(uint256)": {
        "details": "NFTs assigned to zero address are considered invalid, and queries  about them do throw.",
        "params": {
          "_tokenId": "The identifier for an NFT"
        },
        "returns": {
          "_0": "The address of the owner of the NFT"
        }
      },
      "totalSupply()": {
        "returns": {
          "_0": "A count of valid NFTs tracked by this contract, where each one of  them has an assigned and queryable owner not equal to the zero address"
        }
      }
    },
    "version": 1
  },
  "userdoc": {
    "kind": "user",
    "methods": {
      "balanceOf(address)": {
        "notice": "Count all NFTs assigned to an owner"
      },
      "ownerOf(uint256)": {
        "notice": "Find the owner of an NFT"
      },
      "totalSupply()": {
        "notice": "Count NFTs tracked by this contract"
      }
    },
    "version": 1
  }
}