{
  "contractName": "ERC721Metadata",
  "abi": [
    {
      "inputs": [
        {
          "internalType": "string",
          "name": "named",
          "type": "string"
        },
        {
          "internalType": "string",
          "name": "symbolified",
          "type": "string"
        }
      ],
      "stateMutability": "nonpayable",
      "type": "constructor"
    },
    {
      "inputs": [],
      "name": "name",
      "outputs": [
        {
          "internalType": "string",
          "name": "",
          "type": "string"
        }
      ],
      "stateMutability": "view",
      "type": "function"
    },
    {
      "inputs": [],
      "name": "symbol",
      "outputs": [
        {
          "internalType": "string",
          "name": "",
          "type": "string"
        }
      ],
      "stateMutability": "view",
      "type": "function"
    }
  ],
  "bytecode": "0x608060405234801561001057600080fd5b506040516104f23803806104f283398101604081905261002f91610124565b600061003b8382610229565b5060016100488282610229565b5050506102ee565b7f4e487b7100000000000000000000000000000000000000000000000000000000600052604160045260246000fd5b600082601f83011261009057600080fd5b81516001604060020a03808211156100aa576100aa610050565b604051601f8301601f19908116603f011681019082821181831017156100d2576100d2610050565b816040528381526020925086838588010111156100ee57600080fd5b600091505b8382101561011057858201830151818301840152908201906100f3565b600093810190920192909252949350505050565b6000806040838503121561013757600080fd5b82516001604060020a038082111561014e57600080fd5b61015a8683870161007f565b9350602085015191508082111561017057600080fd5b5061017d8582860161007f565b9150509250929050565b60028104600182168061019b57607f821691505b6020821081036101d4577f4e487b7100000000000000000000000000000000000000000000000000000000600052602260045260246000fd5b50919050565b601f821115610224576000818152602081206020601f860104810160208610156102015750805b6020601f860104820191505b818110156102205782815560010161020d565b5050505b505050565b81516001604060020a0381111561024257610242610050565b610256816102508454610187565b846101da565b602080601f83116001811461028f57600084156102735750858301515b60028086026008870290910a6000190419821617865550610220565b600085815260208120601f198616915b828110156102be5788860151825594840194600190910190840161029f565b50858210156102de57878501516008601f88160260020a60001904191681555b5050505050600202600101905550565b6101f5806102fd6000396000f3fe608060405234801561001057600080fd5b5060043610610052577c0100000000000000000000000000000000000000000000000000000000600035046306fdde03811461005757806395d89b4114610075575b600080fd5b61005f61007d565b60405161006c919061011e565b60405180910390f35b61005f61010f565b60606000805461008c9061016c565b80601f01602080910402602001604051908101604052809291908181526020018280546100b89061016c565b80156101055780601f106100da57610100808354040283529160200191610105565b820191906000526020600020905b8154815290600101906020018083116100e857829003601f168201915b5050505050905090565b60606001805461008c9061016c565b600060208083528351808285015260005b8181101561014b5785810183015185820160400152820161012f565b506000604082860101526040601f19601f8301168501019250505092915050565b60028104600182168061018057607f821691505b6020821081036101b9577f4e487b7100000000000000000000000000000000000000000000000000000000600052602260045260246000fd5b5091905056fea264697066735822122084839eb78ba92fcd54db5cb84199ebe31452e6b83f4a3902e23fa66e827291db64736f6c63430008150033",
  "immutableReferences": {},
  "source": "// SPDX-License-Identifier: MIT \r\npragma solidity ^0.8.0;\r\n\r\ncontract ERC721Metadata {\r\n    string private _name;\r\n    string private _symbol;\r\n\r\n    constructor(string memory named, string memory symbolified) {\r\n        _name = named;\r\n        _symbol = symbolified;\r\n    }\r\n\r\n    function name() external view returns(string memory) {\r\n        return _name;\r\n    }\r\n    function symbol() external view returns(string memory) {\r\n        return _symbol;\r\n    }\r\n\r\n}\r\n",
  "sourcePath": "C:\\Users\\hector\\OneDrive\\Escritorio\\nft_marketplace repo\\nft-marketplace-starter-kit\\src\\contracts\\ERC721Metadata.sol",
  "compiler": {
    "name": "solc",
    "version": "0.8.21+commit.d9974bed.Emscripten.clang"
  },
  "schemaVersion": "3.4.14",
  "updatedAt": "2023-07-29T17:28:47.815Z",
  "devdoc": {
    "kind": "dev",
    "methods": {},
    "version": 1
  },
  "userdoc": {
    "kind": "user",
    "methods": {},
    "version": 1
  }
}