{
  "contractName": "ERC721Connector",
  "abi": [
    {
      "inputs": [
        {
          "internalType": "string",
          "name": "name",
          "type": "string"
        },
        {
          "internalType": "string",
          "name": "symbol",
          "type": "string"
        }
      ],
      "stateMutability": "nonpayable",
      "type": "constructor"
    },
    {
      "anonymous": false,
      "inputs": [
        {
          "indexed": true,
          "internalType": "address",
          "name": "address_from",
          "type": "address"
        },
        {
          "indexed": true,
          "internalType": "address",
          "name": "address_to",
          "type": "address"
        },
        {
          "indexed": true,
          "internalType": "uint256",
          "name": "tokenId",
          "type": "uint256"
        }
      ],
      "name": "Transfer",
      "type": "event"
    },
    {
      "inputs": [
        {
          "internalType": "address",
          "name": "_owner",
          "type": "address"
        }
      ],
      "name": "balanceOf",
      "outputs": [
        {
          "internalType": "uint256",
          "name": "",
          "type": "uint256"
        }
      ],
      "stateMutability": "view",
      "type": "function"
    },
    {
      "inputs": [],
      "name": "name",
      "outputs": [
        {
          "internalType": "string",
          "name": "",
          "type": "string"
        }
      ],
      "stateMutability": "view",
      "type": "function"
    },
    {
      "inputs": [
        {
          "internalType": "uint256",
          "name": "_tokenId",
          "type": "uint256"
        }
      ],
      "name": "ownerOf",
      "outputs": [
        {
          "internalType": "address",
          "name": "",
          "type": "address"
        }
      ],
      "stateMutability": "view",
      "type": "function"
    },
    {
      "inputs": [],
      "name": "symbol",
      "outputs": [
        {
          "internalType": "string",
          "name": "",
          "type": "string"
        }
      ],
      "stateMutability": "view",
      "type": "function"
    }
  ],
  "bytecode": "0x608060405234801561001057600080fd5b506040516106fa3803806106fa83398101604081905261002f91610128565b8181600061003d838261022d565b50600161004a828261022d565b50505050506102f2565b7f4e487b7100000000000000000000000000000000000000000000000000000000600052604160045260246000fd5b600082601f83011261009457600080fd5b81516001604060020a03808211156100ae576100ae610054565b604051601f8301601f19908116603f011681019082821181831017156100d6576100d6610054565b816040528381526020925086838588010111156100f257600080fd5b600091505b8382101561011457858201830151818301840152908201906100f7565b600093810190920192909252949350505050565b6000806040838503121561013b57600080fd5b82516001604060020a038082111561015257600080fd5b61015e86838701610083565b9350602085015191508082111561017457600080fd5b5061018185828601610083565b9150509250929050565b60028104600182168061019f57607f821691505b6020821081036101d8577f4e487b7100000000000000000000000000000000000000000000000000000000600052602260045260246000fd5b50919050565b601f821115610228576000818152602081206020601f860104810160208610156102055750805b6020601f860104820191505b8181101561022457828155600101610211565b5050505b505050565b81516001604060020a0381111561024657610246610054565b61025a81610254845461018b565b846101de565b602080601f83116001811461029357600084156102775750858301515b60028086026008870290910a6000190419821617865550610224565b600085815260208120601f198616915b828110156102c2578886015182559484019460019091019084016102a3565b50858210156102e257878501516008601f88160260020a60001904191681555b5050505050600202600101905550565b6103f9806103016000396000f3fe608060405234801561001057600080fd5b5060043610610068577c0100000000000000000000000000000000000000000000000000000000600035046306fdde03811461006d5780636352211e1461008b57806370a08231146100c357806395d89b41146100e4575b600080fd5b6100756100ec565b60405161008291906102cc565b60405180910390f35b61009e61009936600461031a565b61017e565b60405173ffffffffffffffffffffffffffffffffffffffff9091168152602001610082565b6100d66100d1366004610333565b610215565b604051908152602001610082565b6100756102bd565b6060600080546100fb90610370565b80601f016020809104026020016040519081016040528092919081815260200182805461012790610370565b80156101745780601f1061014957610100808354040283529160200191610174565b820191906000526020600020905b81548152906001019060200180831161015757829003601f168201915b5050505050905090565b60008181526002602052604081205473ffffffffffffffffffffffffffffffffffffffff168061020f576040517f08c379a000000000000000000000000000000000000000000000000000000000815260206004820181905260248201527f7468726f77696e6720796f75206675636b696e67206f75742c206d617465203260448201526064015b60405180910390fd5b92915050565b600073ffffffffffffffffffffffffffffffffffffffff8216610294576040517f08c379a000000000000000000000000000000000000000000000000000000000815260206004820152601e60248201527f7468726f77696e6720796f75206675636b696e67206f75742c206d61746500006044820152606401610206565b5073ffffffffffffffffffffffffffffffffffffffff1660009081526003602052604090205490565b6060600180546100fb90610370565b600060208083528351808285015260005b818110156102f9578581018301518582016040015282016102dd565b506000604082860101526040601f19601f8301168501019250505092915050565b60006020828403121561032c57600080fd5b5035919050565b60006020828403121561034557600080fd5b813573ffffffffffffffffffffffffffffffffffffffff8116811461036957600080fd5b9392505050565b60028104600182168061038457607f821691505b6020821081036103bd577f4e487b7100000000000000000000000000000000000000000000000000000000600052602260045260246000fd5b5091905056fea26469706673582212203e0ef73a5b9397904047f90d2bf9831773a84c590e4e6017e0aede24c62ef9c964736f6c63430008150033",
  "immutableReferences": {},
  "source": "// SPDX-License-Identifier: MIT \r\npragma solidity ^0.8.0;\r\n\r\nimport \"./ERC721Metadata.sol\";\r\nimport \"./ERC721.sol\";\r\n\r\ncontract ERC721Connector is ERC721Metadata, ERC721 {\r\n\r\n    constructor(string memory name, string memory symbol) ERC721Metadata(name, symbol){\r\n\r\n    }\r\n\r\n}\r\n\r\n\r\n\r\n\r\n\r\n\r\n\r\n",
  "sourcePath": "C:\\Users\\hector\\OneDrive\\Escritorio\\nft_marketplace repo\\nft-marketplace-starter-kit\\src\\contracts\\ERC721Connector.sol",
  "compiler": {
    "name": "solc",
    "version": "0.8.21+commit.d9974bed.Emscripten.clang"
  },
  "schemaVersion": "3.4.14",
  "updatedAt": "2023-07-26T10:56:19.234Z",
  "devdoc": {
    "kind": "dev",
    "methods": {
      "balanceOf(address)": {
        "details": "NFTs assigned to the zero address are considered invalid, and this  function throws for queries about the zero address.",
        "params": {
          "_owner": "An address for whom to query the balance"
        },
        "returns": {
          "_0": "The number of NFTs owned by `_owner`, possibly zero"
        }
      },
      "ownerOf(uint256)": {
        "details": "NFTs assigned to zero address are considered invalid, and queries  about them do throw.",
        "params": {
          "_tokenId": "The identifier for an NFT"
        },
        "returns": {
          "_0": "The address of the owner of the NFT"
        }
      }
    },
    "version": 1
  },
  "userdoc": {
    "kind": "user",
    "methods": {
      "balanceOf(address)": {
        "notice": "Count all NFTs assigned to an owner"
      },
      "ownerOf(uint256)": {
        "notice": "Find the owner of an NFT"
      }
    },
    "version": 1
  }
}