{
  "contractName": "ERC721Connector",
  "abi": [
    {
      "inputs": [
        {
          "internalType": "string",
          "name": "name",
          "type": "string"
        },
        {
          "internalType": "string",
          "name": "symbol",
          "type": "string"
        }
      ],
      "stateMutability": "nonpayable",
      "type": "constructor"
    },
    {
      "anonymous": false,
      "inputs": [
        {
          "indexed": true,
          "internalType": "address",
          "name": "address_from",
          "type": "address"
        },
        {
          "indexed": true,
          "internalType": "address",
          "name": "address_to",
          "type": "address"
        },
        {
          "indexed": true,
          "internalType": "uint256",
          "name": "tokenId",
          "type": "uint256"
        }
      ],
      "name": "Transfer",
      "type": "event"
    },
    {
      "inputs": [
        {
          "internalType": "address",
          "name": "_owner",
          "type": "address"
        }
      ],
      "name": "balanceOf",
      "outputs": [
        {
          "internalType": "uint256",
          "name": "",
          "type": "uint256"
        }
      ],
      "stateMutability": "view",
      "type": "function"
    },
    {
      "inputs": [
        {
          "internalType": "address",
          "name": "owner",
          "type": "address"
        }
      ],
      "name": "listOfTokenOwned",
      "outputs": [
        {
          "internalType": "uint256[]",
          "name": "",
          "type": "uint256[]"
        }
      ],
      "stateMutability": "view",
      "type": "function"
    },
    {
      "inputs": [],
      "name": "name",
      "outputs": [
        {
          "internalType": "string",
          "name": "",
          "type": "string"
        }
      ],
      "stateMutability": "view",
      "type": "function"
    },
    {
      "inputs": [],
      "name": "numberOftokensOwned",
      "outputs": [
        {
          "internalType": "uint256",
          "name": "",
          "type": "uint256"
        }
      ],
      "stateMutability": "view",
      "type": "function"
    },
    {
      "inputs": [
        {
          "internalType": "uint256",
          "name": "_tokenId",
          "type": "uint256"
        }
      ],
      "name": "ownerOf",
      "outputs": [
        {
          "internalType": "address",
          "name": "",
          "type": "address"
        }
      ],
      "stateMutability": "view",
      "type": "function"
    },
    {
      "inputs": [],
      "name": "symbol",
      "outputs": [
        {
          "internalType": "string",
          "name": "",
          "type": "string"
        }
      ],
      "stateMutability": "view",
      "type": "function"
    },
    {
      "inputs": [
        {
          "internalType": "uint256",
          "name": "index",
          "type": "uint256"
        }
      ],
      "name": "tokenByIndex",
      "outputs": [
        {
          "internalType": "uint256",
          "name": "",
          "type": "uint256"
        }
      ],
      "stateMutability": "view",
      "type": "function"
    },
    {
      "inputs": [
        {
          "internalType": "uint256",
          "name": "index",
          "type": "uint256"
        },
        {
          "internalType": "address",
          "name": "owner",
          "type": "address"
        }
      ],
      "name": "tokenOfOwnerByIndex",
      "outputs": [
        {
          "internalType": "uint256",
          "name": "",
          "type": "uint256"
        }
      ],
      "stateMutability": "view",
      "type": "function"
    },
    {
      "inputs": [],
      "name": "totalSupply",
      "outputs": [
        {
          "internalType": "uint256",
          "name": "",
          "type": "uint256"
        }
      ],
      "stateMutability": "view",
      "type": "function"
    },
    {
      "inputs": [
        {
          "internalType": "address",
          "name": "_from",
          "type": "address"
        },
        {
          "internalType": "address",
          "name": "_to",
          "type": "address"
        },
        {
          "internalType": "uint256",
          "name": "_tokenId",
          "type": "uint256"
        }
      ],
      "name": "transferFrom",
      "outputs": [],
      "stateMutability": "nonpayable",
      "type": "function"
    }
  ],
  "bytecode": "0x60806040523480156200001157600080fd5b5060405162000c0538038062000c0583398101604081905262000034916200013c565b818160006200004483826200024e565b5060016200005382826200024e565b505050505062000320565b7f4e487b7100000000000000000000000000000000000000000000000000000000600052604160045260246000fd5b600082601f8301126200009f57600080fd5b81516001604060020a0380821115620000bc57620000bc6200005e565b604051601f8301601f19908116603f01168101908282118183101715620000e757620000e76200005e565b816040528381526020925086838588010111156200010457600080fd5b600091505b8382101562000128578582018301518183018401529082019062000109565b600093810190920192909252949350505050565b600080604083850312156200015057600080fd5b82516001604060020a03808211156200016857600080fd5b62000176868387016200008d565b935060208501519150808211156200018d57600080fd5b506200019c858286016200008d565b9150509250929050565b600281046001821680620001bb57607f821691505b602082108103620001f5577f4e487b7100000000000000000000000000000000000000000000000000000000600052602260045260246000fd5b50919050565b601f82111562000249576000818152602081206020601f86010481016020861015620002245750805b6020601f860104820191505b81811015620002455782815560010162000230565b5050505b505050565b81516001604060020a038111156200026a576200026a6200005e565b62000282816200027b8454620001a6565b84620001fb565b602080601f831160018114620002be5760008415620002a15750858301515b60028086026008870290910a600019041982161786555062000245565b600085815260208120601f198616915b82811015620002ef57888601518255948401946001909101908401620002ce565b50858210156200031057878501516008601f88160260020a60001904191681555b5050505050600202600101905550565b6108d580620003306000396000f3fe608060405234801561001057600080fd5b50600436106100bb576000357c01000000000000000000000000000000000000000000000000000000009004806370a082311161008357806370a08231146101435780639240f7a01461015657806395d89b4114610176578063a5bb82751461017e578063c55d3d291461019157600080fd5b806306fdde03146100c057806318160ddd146100de57806323b872dd146100f05780634f6ccce7146101055780636352211e14610118575b600080fd5b6100c86101a6565b6040516100d59190610677565b60405180910390f35b6005545b6040519081526020016100d5565b6101036100fe3660046106e1565b610238565b005b6100e261011336600461071d565b610248565b61012b61012636600461071d565b6102ce565b604051600160a060020a0390911681526020016100d5565b6100e2610151366004610736565b61033c565b610169610164366004610736565b6103b3565b6040516100d59190610758565b6100c861041f565b6100e261018c36600461079c565b61042e565b336000908152600760205260409020546100e2565b6060600080546101b5906107c8565b80601f01602080910402602001604051908101604052809291908181526020018280546101e1906107c8565b801561022e5780601f106102035761010080835404028352916020019161022e565b820191906000526020600020905b81548152906001019060200180831161021157829003601f168201915b5050505050905090565b6102438383836104c7565b505050565b600061025360055490565b82106102a95760405160e560020a62461bcd02815260206004820152601c60248201527f676c6f62616c20696e646578206973206f7574206f662072656163680000000060448201526064015b60405180910390fd5b600582815481106102bc576102bc61081b565b90600052602060002001549050919050565b600081815260026020526040812054600160a060020a0316806103365760405160e560020a62461bcd02815260206004820181905260248201527f7468726f77696e6720796f75206675636b696e67206f75742c206d617465203260448201526064016102a0565b92915050565b6000600160a060020a0382166103975760405160e560020a62461bcd02815260206004820152601e60248201527f7468726f77696e6720796f75206675636b696e67206f75742c206d617465000060448201526064016102a0565b50600160a060020a031660009081526003602052604090205490565b600160a060020a03811660009081526007602090815260409182902080548351818402810184019094528084526060939283018282801561041357602002820191906000526020600020905b8154815260200190600101908083116103ff575b50505050509050919050565b6060600180546101b5906107c8565b60006104398261033c565b831061048a5760405160e560020a62461bcd02815260206004820152601b60248201527f6f776e657220696e646578206973206f7574206f66207265616368000000000060448201526064016102a0565b600160a060020a03821660009081526007602052604090208054849081106104b4576104b461081b565b9060005260206000200154905092915050565b600160a060020a0382166105205760405160e560020a62461bcd02815260206004820152601460248201527f5265636569766572206e6f7420616c6c6f77656400000000000000000000000060448201526064016102a0565b600081815260026020526040902054600160a060020a038481169116146105b25760405160e560020a62461bcd02815260206004820152602760248201527f796f752063616e74207472616e66657220736f6d657468696e6720796f75206460448201527f6f6e74206f776e0000000000000000000000000000000000000000000000000060648201526084016102a0565b600160a060020a03831660009081526003602052604081208054600192906105db908490610879565b9091555050600160a060020a038216600090815260036020526040812080546001929061060990849061088c565b9091555050600081815260026020526040808220805473ffffffffffffffffffffffffffffffffffffffff1916600160a060020a0386811691821790925591518493918716917fddf252ad1be2c89b69c2b068fc378daa952ba7f163c4a11628f55a4df523b3ef91a4505050565b600060208083528351808285015260005b818110156106a457858101830151858201604001528201610688565b506000604082860101526040601f19601f8301168501019250505092915050565b8035600160a060020a03811681146106dc57600080fd5b919050565b6000806000606084860312156106f657600080fd5b6106ff846106c5565b925061070d602085016106c5565b9150604084013590509250925092565b60006020828403121561072f57600080fd5b5035919050565b60006020828403121561074857600080fd5b610751826106c5565b9392505050565b6020808252825182820181905260009190848201906040850190845b8181101561079057835183529284019291840191600101610774565b50909695505050505050565b600080604083850312156107af57600080fd5b823591506107bf602084016106c5565b90509250929050565b6002810460018216806107dc57607f821691505b602082108103610815577f4e487b7100000000000000000000000000000000000000000000000000000000600052602260045260246000fd5b50919050565b7f4e487b7100000000000000000000000000000000000000000000000000000000600052603260045260246000fd5b7f4e487b7100000000000000000000000000000000000000000000000000000000600052601160045260246000fd5b818103818111156103365761033661084a565b808201808211156103365761033661084a56fea264697066735822122041ded22f33f5ed7d50c25593217085ed10803fd81cbf45317d1ba5ba51efd4ac64736f6c63430008150033",
  "immutableReferences": {},
  "source": "// SPDX-License-Identifier: MIT \r\npragma solidity ^0.8.0;\r\n\r\nimport \"./ERC721Metadata.sol\";\r\nimport \"./ERC721Enumerable.sol\";\r\n\r\ncontract ERC721Connector is ERC721Metadata, ERC721Enumerable {\r\n\r\n    constructor(string memory name, string memory symbol) ERC721Metadata(name, symbol){\r\n\r\n    }\r\n\r\n}\r\n\r\n\r\n\r\n\r\n\r\n\r\n\r\n",
  "sourcePath": "C:\\Users\\hector\\OneDrive\\Escritorio\\nft_marketplace repo\\nft-marketplace-starter-kit\\src\\contracts\\ERC721Connector.sol",
  "compiler": {
    "name": "solc",
    "version": "0.8.21+commit.d9974bed.Emscripten.clang"
  },
  "schemaVersion": "3.4.14",
  "updatedAt": "2023-07-29T17:28:47.787Z",
  "devdoc": {
    "kind": "dev",
    "methods": {
      "balanceOf(address)": {
        "details": "NFTs assigned to the zero address are considered invalid, and this  function throws for queries about the zero address.",
        "params": {
          "_owner": "An address for whom to query the balance"
        },
        "returns": {
          "_0": "The number of NFTs owned by `_owner`, possibly zero"
        }
      },
      "ownerOf(uint256)": {
        "details": "NFTs assigned to zero address are considered invalid, and queries  about them do throw.",
        "params": {
          "_tokenId": "The identifier for an NFT"
        },
        "returns": {
          "_0": "The address of the owner of the NFT"
        }
      },
      "totalSupply()": {
        "returns": {
          "_0": "A count of valid NFTs tracked by this contract, where each one of  them has an assigned and queryable owner not equal to the zero address"
        }
      }
    },
    "version": 1
  },
  "userdoc": {
    "kind": "user",
    "methods": {
      "balanceOf(address)": {
        "notice": "Count all NFTs assigned to an owner"
      },
      "ownerOf(uint256)": {
        "notice": "Find the owner of an NFT"
      },
      "totalSupply()": {
        "notice": "Count NFTs tracked by this contract"
      }
    },
    "version": 1
  }
}