{
  "contractName": "ERC721Connector",
  "abi": [
    {
      "inputs": [
        {
          "internalType": "string",
          "name": "name",
          "type": "string"
        },
        {
          "internalType": "string",
          "name": "symbol",
          "type": "string"
        }
      ],
      "stateMutability": "nonpayable",
      "type": "constructor"
    },
    {
      "anonymous": false,
      "inputs": [
        {
          "indexed": true,
          "internalType": "address",
          "name": "address_from",
          "type": "address"
        },
        {
          "indexed": true,
          "internalType": "address",
          "name": "address_to",
          "type": "address"
        },
        {
          "indexed": true,
          "internalType": "uint256",
          "name": "tokenId",
          "type": "uint256"
        }
      ],
      "name": "Transfer",
      "type": "event"
    },
    {
      "inputs": [
        {
          "internalType": "address",
          "name": "_owner",
          "type": "address"
        }
      ],
      "name": "balanceOf",
      "outputs": [
        {
          "internalType": "uint256",
          "name": "",
          "type": "uint256"
        }
      ],
      "stateMutability": "view",
      "type": "function"
    },
    {
      "inputs": [],
      "name": "name",
      "outputs": [
        {
          "internalType": "string",
          "name": "",
          "type": "string"
        }
      ],
      "stateMutability": "view",
      "type": "function"
    },
    {
      "inputs": [
        {
          "internalType": "uint256",
          "name": "_tokenId",
          "type": "uint256"
        }
      ],
      "name": "ownerOf",
      "outputs": [
        {
          "internalType": "address",
          "name": "",
          "type": "address"
        }
      ],
      "stateMutability": "view",
      "type": "function"
    },
    {
      "inputs": [],
      "name": "symbol",
      "outputs": [
        {
          "internalType": "string",
          "name": "",
          "type": "string"
        }
      ],
      "stateMutability": "view",
      "type": "function"
    },
    {
      "inputs": [],
      "name": "totalSupply",
      "outputs": [
        {
          "internalType": "uint256",
          "name": "",
          "type": "uint256"
        }
      ],
      "stateMutability": "view",
      "type": "function"
    }
  ],
  "bytecode": "0x608060405234801561001057600080fd5b5060405161070938038061070983398101604081905261002f91610128565b8181600061003d838261022d565b50600161004a828261022d565b50505050506102f2565b7f4e487b7100000000000000000000000000000000000000000000000000000000600052604160045260246000fd5b600082601f83011261009457600080fd5b81516001604060020a03808211156100ae576100ae610054565b604051601f8301601f19908116603f011681019082821181831017156100d6576100d6610054565b816040528381526020925086838588010111156100f257600080fd5b600091505b8382101561011457858201830151818301840152908201906100f7565b600093810190920192909252949350505050565b6000806040838503121561013b57600080fd5b82516001604060020a038082111561015257600080fd5b61015e86838701610083565b9350602085015191508082111561017457600080fd5b5061018185828601610083565b9150509250929050565b60028104600182168061019f57607f821691505b6020821081036101d8577f4e487b7100000000000000000000000000000000000000000000000000000000600052602260045260246000fd5b50919050565b601f821115610228576000818152602081206020601f860104810160208610156102055750805b6020601f860104820191505b8181101561022457828155600101610211565b5050505b505050565b81516001604060020a0381111561024657610246610054565b61025a81610254845461018b565b846101de565b602080601f83116001811461029357600084156102775750858301515b60028086026008870290910a6000190419821617865550610224565b600085815260208120601f198616915b828110156102c2578886015182559484019460019091019084016102a3565b50858210156102e257878501516008601f88160260020a60001904191681555b5050505050600202600101905550565b610408806103016000396000f3fe608060405234801561001057600080fd5b5060043610610073577c0100000000000000000000000000000000000000000000000000000000600035046306fdde03811461007857806318160ddd146100965780636352211e146100a857806370a08231146100e057806395d89b41146100f3575b600080fd5b6100806100fb565b60405161008d91906102db565b60405180910390f35b6004545b60405190815260200161008d565b6100bb6100b6366004610329565b61018d565b60405173ffffffffffffffffffffffffffffffffffffffff909116815260200161008d565b61009a6100ee366004610342565b610224565b6100806102cc565b60606000805461010a9061037f565b80601f01602080910402602001604051908101604052809291908181526020018280546101369061037f565b80156101835780601f1061015857610100808354040283529160200191610183565b820191906000526020600020905b81548152906001019060200180831161016657829003601f168201915b5050505050905090565b60008181526002602052604081205473ffffffffffffffffffffffffffffffffffffffff168061021e576040517f08c379a000000000000000000000000000000000000000000000000000000000815260206004820181905260248201527f7468726f77696e6720796f75206675636b696e67206f75742c206d617465203260448201526064015b60405180910390fd5b92915050565b600073ffffffffffffffffffffffffffffffffffffffff82166102a3576040517f08c379a000000000000000000000000000000000000000000000000000000000815260206004820152601e60248201527f7468726f77696e6720796f75206675636b696e67206f75742c206d61746500006044820152606401610215565b5073ffffffffffffffffffffffffffffffffffffffff1660009081526003602052604090205490565b60606001805461010a9061037f565b600060208083528351808285015260005b81811015610308578581018301518582016040015282016102ec565b506000604082860101526040601f19601f8301168501019250505092915050565b60006020828403121561033b57600080fd5b5035919050565b60006020828403121561035457600080fd5b813573ffffffffffffffffffffffffffffffffffffffff8116811461037857600080fd5b9392505050565b60028104600182168061039357607f821691505b6020821081036103cc577f4e487b7100000000000000000000000000000000000000000000000000000000600052602260045260246000fd5b5091905056fea2646970667358221220525c6843668f3fbea973e520ab0ae4b24f701d1110337ac36a1fd4d12d3cefcb64736f6c63430008150033",
  "immutableReferences": {},
  "source": "// SPDX-License-Identifier: MIT \r\npragma solidity ^0.8.0;\r\n\r\nimport \"./ERC721Metadata.sol\";\r\nimport \"./ERC721Enumerable.sol\";\r\n\r\ncontract ERC721Connector is ERC721Metadata, ERC721Enumerable {\r\n\r\n    constructor(string memory name, string memory symbol) ERC721Metadata(name, symbol){\r\n\r\n    }\r\n\r\n}\r\n\r\n\r\n\r\n\r\n\r\n\r\n\r\n",
  "sourcePath": "C:\\Users\\hector\\OneDrive\\Escritorio\\nft_marketplace repo\\nft-marketplace-starter-kit\\src\\contracts\\ERC721Connector.sol",
  "compiler": {
    "name": "solc",
    "version": "0.8.21+commit.d9974bed.Emscripten.clang"
  },
  "schemaVersion": "3.4.14",
  "updatedAt": "2023-07-29T09:04:29.764Z",
  "devdoc": {
    "kind": "dev",
    "methods": {
      "balanceOf(address)": {
        "details": "NFTs assigned to the zero address are considered invalid, and this  function throws for queries about the zero address.",
        "params": {
          "_owner": "An address for whom to query the balance"
        },
        "returns": {
          "_0": "The number of NFTs owned by `_owner`, possibly zero"
        }
      },
      "ownerOf(uint256)": {
        "details": "NFTs assigned to zero address are considered invalid, and queries  about them do throw.",
        "params": {
          "_tokenId": "The identifier for an NFT"
        },
        "returns": {
          "_0": "The address of the owner of the NFT"
        }
      },
      "totalSupply()": {
        "returns": {
          "_0": "A count of valid NFTs tracked by this contract, where each one of  them has an assigned and queryable owner not equal to the zero address"
        }
      }
    },
    "version": 1
  },
  "userdoc": {
    "kind": "user",
    "methods": {
      "balanceOf(address)": {
        "notice": "Count all NFTs assigned to an owner"
      },
      "ownerOf(uint256)": {
        "notice": "Find the owner of an NFT"
      },
      "totalSupply()": {
        "notice": "Count NFTs tracked by this contract"
      }
    },
    "version": 1
  }
}