{
  "contractName": "KryptoBird",
  "abi": [
    {
      "inputs": [],
      "stateMutability": "nonpayable",
      "type": "constructor"
    },
    {
      "anonymous": false,
      "inputs": [
        {
          "indexed": true,
          "internalType": "address",
          "name": "address_from",
          "type": "address"
        },
        {
          "indexed": true,
          "internalType": "address",
          "name": "address_to",
          "type": "address"
        },
        {
          "indexed": true,
          "internalType": "uint256",
          "name": "tokenId",
          "type": "uint256"
        }
      ],
      "name": "Transfer",
      "type": "event"
    },
    {
      "inputs": [
        {
          "internalType": "address",
          "name": "_owner",
          "type": "address"
        }
      ],
      "name": "balanceOf",
      "outputs": [
        {
          "internalType": "uint256",
          "name": "",
          "type": "uint256"
        }
      ],
      "stateMutability": "view",
      "type": "function",
      "constant": true
    },
    {
      "inputs": [
        {
          "internalType": "uint256",
          "name": "",
          "type": "uint256"
        }
      ],
      "name": "kryptobirdz",
      "outputs": [
        {
          "internalType": "string",
          "name": "",
          "type": "string"
        }
      ],
      "stateMutability": "view",
      "type": "function",
      "constant": true
    },
    {
      "inputs": [],
      "name": "name",
      "outputs": [
        {
          "internalType": "string",
          "name": "",
          "type": "string"
        }
      ],
      "stateMutability": "view",
      "type": "function",
      "constant": true
    },
    {
      "inputs": [
        {
          "internalType": "uint256",
          "name": "_tokenId",
          "type": "uint256"
        }
      ],
      "name": "ownerOf",
      "outputs": [
        {
          "internalType": "address",
          "name": "",
          "type": "address"
        }
      ],
      "stateMutability": "view",
      "type": "function",
      "constant": true
    },
    {
      "inputs": [],
      "name": "symbol",
      "outputs": [
        {
          "internalType": "string",
          "name": "",
          "type": "string"
        }
      ],
      "stateMutability": "view",
      "type": "function",
      "constant": true
    },
    {
      "inputs": [],
      "name": "totalSupply",
      "outputs": [
        {
          "internalType": "uint256",
          "name": "",
          "type": "uint256"
        }
      ],
      "stateMutability": "view",
      "type": "function",
      "constant": true
    },
    {
      "inputs": [
        {
          "internalType": "string",
          "name": "_kryptobird",
          "type": "string"
        }
      ],
      "name": "mint",
      "outputs": [],
      "stateMutability": "nonpayable",
      "type": "function"
    }
  ],
  "bytecode": "0x608060405234801561001057600080fd5b506040518060400160405280600a81526020017f4b727970746f42697264000000000000000000000000000000000000000000008152506040518060400160405280600681526020017f4b424952445a00000000000000000000000000000000000000000000000000008152508181816000908161008e9190610176565b50600161009b8282610176565b505050505061023c565b7f4e487b7100000000000000000000000000000000000000000000000000000000600052604160045260246000fd5b6002810460018216806100e857607f821691505b602082108103610121577f4e487b7100000000000000000000000000000000000000000000000000000000600052602260045260246000fd5b50919050565b601f821115610171576000818152602081206020601f8601048101602086101561014e5750805b6020601f860104820191505b8181101561016d5782815560010161015a565b5050505b505050565b815167ffffffffffffffff811115610190576101906100a5565b6101a48161019e84546100d4565b84610127565b602080601f8311600181146101dd57600084156101c15750858301515b60028086026008870290910a600019041982161786555061016d565b600085815260208120601f198616915b8281101561020c578886015182559484019460019091019084016101ed565b508582101561022c57878501516008601f88160260020a60001904191681555b5050505050600202600101905550565b6109ca806200024c6000396000f3fe608060405234801561001057600080fd5b506004361061009a576000357c0100000000000000000000000000000000000000000000000000000000900480636352211e116100785780636352211e146100e257806370a082311461010d57806395d89b4114610120578063d85d3d271461012857600080fd5b806306fdde031461009f57806318160ddd146100bd57806336a129a3146100cf575b600080fd5b6100a761013d565b6040516100b4919061065f565b60405180910390f35b6004545b6040519081526020016100b4565b6100a76100dd366004610692565b6101cf565b6100f56100f0366004610692565b61027b565b604051600160a060020a0390911681526020016100b4565b6100c161011b3660046106ab565b6102ee565b6100a7610365565b61013b61013636600461070a565b610374565b005b60606000805461014c906107bb565b80601f0160208091040260200160405190810160405280929190818152602001828054610178906107bb565b80156101c55780601f1061019a576101008083540402835291602001916101c5565b820191906000526020600020905b8154815290600101906020018083116101a857829003601f168201915b5050505050905090565b600881815481106101df57600080fd5b9060005260206000200160009150905080546101fa906107bb565b80601f0160208091040260200160405190810160405280929190818152602001828054610226906107bb565b80156102735780601f1061024857610100808354040283529160200191610273565b820191906000526020600020905b81548152906001019060200180831161025657829003601f168201915b505050505081565b600081815260026020526040812054600160a060020a0316806102e85760405160e560020a62461bcd02815260206004820181905260248201527f7468726f77696e6720796f75206675636b696e67206f75742c206d617465203260448201526064015b60405180910390fd5b92915050565b6000600160a060020a0382166103495760405160e560020a62461bcd02815260206004820152601e60248201527f7468726f77696e6720796f75206675636b696e67206f75742c206d617465000060448201526064016102df565b50600160a060020a031660009081526003602052604090205490565b60606001805461014c906107bb565b600981604051610384919061080e565b9081526040519081900360200190205460ff16156103e75760405160e560020a62461bcd02815260206004820152601e60248201527f4572726f72206b727970746f6269726420616c7265616479206578697374000060448201526064016102df565b600880546001810182556000919091527ff3f7a9fe364faab93b216da50a3214154f22a0a2b415b23a84c8169e8b636ee3016104238282610879565b506008546000906104369060019061096e565b90506104423382610478565b6001600983604051610454919061080e565b908152604051908190036020019020805491151560ff199092169190911790555050565b61048282826104bf565b6104bb81600480546001810182556000919091527f8a35acfbc15ff81a39ae7d344fd709f28e8600b4aa8c65c6b64bfe7fe36bd19b0155565b5050565b600160a060020a0382166105185760405160e560020a62461bcd02815260206004820152601b60248201527f696e76616c6964206d696e742061646472657373206675636b6574000000000060448201526064016102df565b600081815260026020526040902054600160a060020a0316156105a65760405160e560020a62461bcd02815260206004820152602760248201527f796f7520617265206c617465206d6174652c20746f6b656e20616c726561647960448201527f206d696e7465640000000000000000000000000000000000000000000000000060648201526084016102df565b6000818152600260209081526040808320805473ffffffffffffffffffffffffffffffffffffffff1916600160a060020a0387169081179091558352600390915281208054600192906105fa908490610981565b90915550506040518190600160a060020a038416906000907fddf252ad1be2c89b69c2b068fc378daa952ba7f163c4a11628f55a4df523b3ef908290a45050565b60005b8381101561065657818101518382015260200161063e565b50506000910152565b602081526000825180602084015261067e81604085016020870161063b565b601f01601f19169190910160400192915050565b6000602082840312156106a457600080fd5b5035919050565b6000602082840312156106bd57600080fd5b8135600160a060020a03811681146106d457600080fd5b9392505050565b7f4e487b7100000000000000000000000000000000000000000000000000000000600052604160045260246000fd5b60006020828403121561071c57600080fd5b813567ffffffffffffffff8082111561073457600080fd5b818401915084601f83011261074857600080fd5b81358181111561075a5761075a6106db565b604051601f8201601f19908116603f01168101908382118183101715610782576107826106db565b8160405282815287602084870101111561079b57600080fd5b826020860160208301376000928101602001929092525095945050505050565b6002810460018216806107cf57607f821691505b602082108103610808577f4e487b7100000000000000000000000000000000000000000000000000000000600052602260045260246000fd5b50919050565b6000825161082081846020870161063b565b9190910192915050565b601f821115610874576000818152602081206020601f860104810160208610156108515750805b6020601f860104820191505b818110156108705782815560010161085d565b5050505b505050565b815167ffffffffffffffff811115610893576108936106db565b6108a7816108a184546107bb565b8461082a565b602080601f8311600181146108e057600084156108c45750858301515b60028086026008870290910a6000190419821617865550610870565b600085815260208120601f198616915b8281101561090f578886015182559484019460019091019084016108f0565b508582101561092f57878501516008601f88160260020a60001904191681555b5050505050600202600101905550565b7f4e487b7100000000000000000000000000000000000000000000000000000000600052601160045260246000fd5b818103818111156102e8576102e861093f565b808201808211156102e8576102e861093f56fea2646970667358221220c6110a46b4b2af850fa298c19251efec0df95141522e8b660e10ac4e59a05e2964736f6c63430008150033",
  "immutableReferences": {},
  "source": "// SPDX-License-Identifier: MIT \r\npragma solidity ^0.8.0;\r\n\r\nimport './ERC721Connector.sol';\r\n\r\ncontract KryptoBird is ERC721Connector {\r\n\r\n    string [] public kryptobirdz; // array to store our nfts\r\n\r\n    mapping(string => bool) _kryptoBirdzExists;\r\n\r\n    function mint(string memory _kryptobird) public {\r\n       // uint _id = KryptoBirdz.push(_kryptoBird); deprecated cause .push no longer returns lenght\r\n       require(!_kryptoBirdzExists[_kryptobird], \"Error kryptobird already exist\");\r\n       kryptobirdz.push(_kryptobird);\r\n       uint _id = kryptobirdz.length - 1;\r\n       \r\n        _mint(msg.sender, _id);\r\n        _kryptoBirdzExists[_kryptobird] = true;\r\n\r\n\r\n    }\r\n   \r\n    constructor() ERC721Connector('KryptoBird', 'KBIRDZ') {\r\n        \r\n    }\r\n}\r\n\r\n\r\n",
  "sourcePath": "C:\\Users\\hector\\OneDrive\\Escritorio\\nft_marketplace repo\\nft-marketplace-starter-kit\\src\\contracts\\KriptoBirdz.sol",
  "compiler": {
    "name": "solc",
    "version": "0.8.21+commit.d9974bed.Emscripten.clang"
  },
  "schemaVersion": "3.4.14",
  "updatedAt": "2023-07-29T09:04:32.259Z",
  "networkType": "ethereum",
  "devdoc": {
    "kind": "dev",
    "methods": {
      "balanceOf(address)": {
        "details": "NFTs assigned to the zero address are considered invalid, and this  function throws for queries about the zero address.",
        "params": {
          "_owner": "An address for whom to query the balance"
        },
        "returns": {
          "_0": "The number of NFTs owned by `_owner`, possibly zero"
        }
      },
      "ownerOf(uint256)": {
        "details": "NFTs assigned to zero address are considered invalid, and queries  about them do throw.",
        "params": {
          "_tokenId": "The identifier for an NFT"
        },
        "returns": {
          "_0": "The address of the owner of the NFT"
        }
      },
      "totalSupply()": {
        "returns": {
          "_0": "A count of valid NFTs tracked by this contract, where each one of  them has an assigned and queryable owner not equal to the zero address"
        }
      }
    },
    "version": 1
  },
  "userdoc": {
    "kind": "user",
    "methods": {
      "balanceOf(address)": {
        "notice": "Count all NFTs assigned to an owner"
      },
      "ownerOf(uint256)": {
        "notice": "Find the owner of an NFT"
      },
      "totalSupply()": {
        "notice": "Count NFTs tracked by this contract"
      }
    },
    "version": 1
  }
}