{
  "contractName": "KryptoBird",
  "abi": [
    {
      "inputs": [],
      "stateMutability": "nonpayable",
      "type": "constructor"
    },
    {
      "anonymous": false,
      "inputs": [
        {
          "indexed": true,
          "internalType": "address",
          "name": "address_from",
          "type": "address"
        },
        {
          "indexed": true,
          "internalType": "address",
          "name": "address_to",
          "type": "address"
        },
        {
          "indexed": true,
          "internalType": "uint256",
          "name": "tokenId",
          "type": "uint256"
        }
      ],
      "name": "Transfer",
      "type": "event"
    },
    {
      "inputs": [
        {
          "internalType": "address",
          "name": "_owner",
          "type": "address"
        }
      ],
      "name": "balanceOf",
      "outputs": [
        {
          "internalType": "uint256",
          "name": "",
          "type": "uint256"
        }
      ],
      "stateMutability": "view",
      "type": "function",
      "constant": true
    },
    {
      "inputs": [
        {
          "internalType": "uint256",
          "name": "",
          "type": "uint256"
        }
      ],
      "name": "kryptobirdz",
      "outputs": [
        {
          "internalType": "string",
          "name": "",
          "type": "string"
        }
      ],
      "stateMutability": "view",
      "type": "function",
      "constant": true
    },
    {
      "inputs": [
        {
          "internalType": "address",
          "name": "owner",
          "type": "address"
        }
      ],
      "name": "listOfTokenOwned",
      "outputs": [
        {
          "internalType": "uint256[]",
          "name": "",
          "type": "uint256[]"
        }
      ],
      "stateMutability": "view",
      "type": "function",
      "constant": true
    },
    {
      "inputs": [],
      "name": "name",
      "outputs": [
        {
          "internalType": "string",
          "name": "",
          "type": "string"
        }
      ],
      "stateMutability": "view",
      "type": "function",
      "constant": true
    },
    {
      "inputs": [],
      "name": "numberOftokensOwned",
      "outputs": [
        {
          "internalType": "uint256",
          "name": "",
          "type": "uint256"
        }
      ],
      "stateMutability": "view",
      "type": "function",
      "constant": true
    },
    {
      "inputs": [
        {
          "internalType": "uint256",
          "name": "_tokenId",
          "type": "uint256"
        }
      ],
      "name": "ownerOf",
      "outputs": [
        {
          "internalType": "address",
          "name": "",
          "type": "address"
        }
      ],
      "stateMutability": "view",
      "type": "function",
      "constant": true
    },
    {
      "inputs": [],
      "name": "symbol",
      "outputs": [
        {
          "internalType": "string",
          "name": "",
          "type": "string"
        }
      ],
      "stateMutability": "view",
      "type": "function",
      "constant": true
    },
    {
      "inputs": [
        {
          "internalType": "uint256",
          "name": "index",
          "type": "uint256"
        }
      ],
      "name": "tokenByIndex",
      "outputs": [
        {
          "internalType": "uint256",
          "name": "",
          "type": "uint256"
        }
      ],
      "stateMutability": "view",
      "type": "function",
      "constant": true
    },
    {
      "inputs": [
        {
          "internalType": "uint256",
          "name": "index",
          "type": "uint256"
        },
        {
          "internalType": "address",
          "name": "owner",
          "type": "address"
        }
      ],
      "name": "tokenOfOwnerByIndex",
      "outputs": [
        {
          "internalType": "uint256",
          "name": "",
          "type": "uint256"
        }
      ],
      "stateMutability": "view",
      "type": "function",
      "constant": true
    },
    {
      "inputs": [],
      "name": "totalSupply",
      "outputs": [
        {
          "internalType": "uint256",
          "name": "",
          "type": "uint256"
        }
      ],
      "stateMutability": "view",
      "type": "function",
      "constant": true
    },
    {
      "inputs": [
        {
          "internalType": "address",
          "name": "_from",
          "type": "address"
        },
        {
          "internalType": "address",
          "name": "_to",
          "type": "address"
        },
        {
          "internalType": "uint256",
          "name": "_tokenId",
          "type": "uint256"
        }
      ],
      "name": "transferFrom",
      "outputs": [],
      "stateMutability": "nonpayable",
      "type": "function"
    },
    {
      "inputs": [
        {
          "internalType": "string",
          "name": "_kryptobird",
          "type": "string"
        }
      ],
      "name": "mint",
      "outputs": [],
      "stateMutability": "nonpayable",
      "type": "function"
    },
    {
      "inputs": [],
      "name": "listOfBirdz",
      "outputs": [
        {
          "internalType": "string[]",
          "name": "",
          "type": "string[]"
        }
      ],
      "stateMutability": "view",
      "type": "function",
      "constant": true
    }
  ],
  "bytecode": "0x60806040523480156200001157600080fd5b506040518060400160405280600a81526020017f4b727970746f42697264000000000000000000000000000000000000000000008152506040518060400160405280600681526020017f4b424952445a00000000000000000000000000000000000000000000000000008152508181816000908162000091919062000182565b506001620000a0828262000182565b505050505062000255565b7f4e487b7100000000000000000000000000000000000000000000000000000000600052604160045260246000fd5b600281046001821680620000ef57607f821691505b60208210810362000129577f4e487b7100000000000000000000000000000000000000000000000000000000600052602260045260246000fd5b50919050565b601f8211156200017d576000818152602081206020601f86010481016020861015620001585750805b6020601f860104820191505b81811015620001795782815560010162000164565b5050505b505050565b815167ffffffffffffffff8111156200019f576200019f620000ab565b620001b781620001b08454620000da565b846200012f565b602080601f831160018114620001f35760008415620001d65750858301515b60028086026008870290910a600019041982161786555062000179565b600085815260208120601f198616915b82811015620002245788860151825594840194600190910190840162000203565b50858210156200024557878501516008601f88160260020a60001904191681555b5050505050600202600101905550565b61100b80620002656000396000f3fe608060405234801561001057600080fd5b50600436106100ec576000357c0100000000000000000000000000000000000000000000000000000000900480636352211e116100a957806395d89b411161008357806395d89b41146101cf578063a5bb8275146101d7578063c55d3d29146101ea578063d85d3d27146101ff57600080fd5b80636352211e1461017157806370a082311461019c5780639240f7a0146101af57600080fd5b806306fdde03146100f157806318160ddd1461010f57806323b872dd1461012157806336a129a314610136578063427a4977146101495780634f6ccce71461015e575b600080fd5b6100f9610212565b6040516101069190610bcf565b60405180910390f35b6005545b604051908152602001610106565b61013461012f366004610c05565b6102a4565b005b6100f9610144366004610c41565b6102b4565b610151610360565b6040516101069190610c5a565b61011361016c366004610c41565b610439565b61018461017f366004610c41565b6104bf565b604051600160a060020a039091168152602001610106565b6101136101aa366004610cbb565b61052d565b6101c26101bd366004610cbb565b6105a4565b6040516101069190610cd6565b6100f9610610565b6101136101e5366004610d1a565b61061f565b33600090815260076020526040902054610113565b61013461020d366004610d5f565b6106b8565b60606000805461022190610e10565b80601f016020809104026020016040519081016040528092919081815260200182805461024d90610e10565b801561029a5780601f1061026f5761010080835404028352916020019161029a565b820191906000526020600020905b81548152906001019060200180831161027d57829003601f168201915b5050505050905090565b6102af8383836107bc565b505050565b600981815481106102c457600080fd5b9060005260206000200160009150905080546102df90610e10565b80601f016020809104026020016040519081016040528092919081815260200182805461030b90610e10565b80156103585780601f1061032d57610100808354040283529160200191610358565b820191906000526020600020905b81548152906001019060200180831161033b57829003601f168201915b505050505081565b60606009805480602002602001604051908101604052809291908181526020016000905b828210156104305783829060005260206000200180546103a390610e10565b80601f01602080910402602001604051908101604052809291908181526020018280546103cf90610e10565b801561041c5780601f106103f15761010080835404028352916020019161041c565b820191906000526020600020905b8154815290600101906020018083116103ff57829003601f168201915b505050505081526020019060010190610384565b50505050905090565b600061044460055490565b821061049a5760405160e560020a62461bcd02815260206004820152601c60248201527f676c6f62616c20696e646578206973206f7574206f662072656163680000000060448201526064015b60405180910390fd5b600582815481106104ad576104ad610e4d565b90600052602060002001549050919050565b600081815260026020526040812054600160a060020a0316806105275760405160e560020a62461bcd02815260206004820181905260248201527f7468726f77696e6720796f75206675636b696e67206f75742c206d61746520326044820152606401610491565b92915050565b6000600160a060020a0382166105885760405160e560020a62461bcd02815260206004820152601e60248201527f7468726f77696e6720796f75206675636b696e67206f75742c206d61746500006044820152606401610491565b50600160a060020a031660009081526003602052604090205490565b600160a060020a03811660009081526007602090815260409182902080548351818402810184019094528084526060939283018282801561060457602002820191906000526020600020905b8154815260200190600101908083116105f0575b50505050509050919050565b60606001805461022190610e10565b600061062a8261052d565b831061067b5760405160e560020a62461bcd02815260206004820152601b60248201527f6f776e657220696e646578206973206f7574206f6620726561636800000000006044820152606401610491565b600160a060020a03821660009081526007602052604090208054849081106106a5576106a5610e4d565b9060005260206000200154905092915050565b600a816040516106c89190610e66565b9081526040519081900360200190205460ff161561072b5760405160e560020a62461bcd02815260206004820152601e60248201527f4572726f72206b727970746f6269726420616c726561647920657869737400006044820152606401610491565b600980546001810182556000919091527f6e1540171b6c0c960b71a7020d9f60077f6af931a8bbf590da0223dacf75c7af016107678282610ed0565b5060095460009061077a90600190610faf565b9050610786338261096c565b6001600a836040516107989190610e66565b908152604051908190036020019020805491151560ff199092169190911790555050565b600160a060020a0382166108155760405160e560020a62461bcd02815260206004820152601460248201527f5265636569766572206e6f7420616c6c6f7765640000000000000000000000006044820152606401610491565b600081815260026020526040902054600160a060020a038481169116146108a75760405160e560020a62461bcd02815260206004820152602760248201527f796f752063616e74207472616e66657220736f6d657468696e6720796f75206460448201527f6f6e74206f776e000000000000000000000000000000000000000000000000006064820152608401610491565b600160a060020a03831660009081526003602052604081208054600192906108d0908490610faf565b9091555050600160a060020a03821660009081526003602052604081208054600192906108fe908490610fc2565b9091555050600081815260026020526040808220805473ffffffffffffffffffffffffffffffffffffffff1916600160a060020a0386811691821790925591518493918716917fddf252ad1be2c89b69c2b068fc378daa952ba7f163c4a11628f55a4df523b3ef91a4505050565b6109768282610a03565b6109be81600580546000838152600660205260408120829055600182018355919091527f036b6384b5eca791c62761152d0c79bb0604c104a5fb6f4eb0703f3154bb3db00155565b6109ff8183600160a060020a031660009081526007602081815260408084208054868652600884529185208290559282526001810183559183529091200155565b5050565b600160a060020a038216610a5c5760405160e560020a62461bcd02815260206004820152601b60248201527f696e76616c6964206d696e742061646472657373206675636b657400000000006044820152606401610491565b600081815260026020526040902054600160a060020a031615610aea5760405160e560020a62461bcd02815260206004820152602760248201527f796f7520617265206c617465206d6174652c20746f6b656e20616c726561647960448201527f206d696e746564000000000000000000000000000000000000000000000000006064820152608401610491565b6000818152600260209081526040808320805473ffffffffffffffffffffffffffffffffffffffff1916600160a060020a038716908117909155835260039091528120805460019290610b3e908490610fc2565b90915550506040518190600160a060020a038416906000907fddf252ad1be2c89b69c2b068fc378daa952ba7f163c4a11628f55a4df523b3ef908290a45050565b60005b83811015610b9a578181015183820152602001610b82565b50506000910152565b60008151808452610bbb816020860160208601610b7f565b601f01601f19169290920160200192915050565b602081526000610be26020830184610ba3565b9392505050565b8035600160a060020a0381168114610c0057600080fd5b919050565b600080600060608486031215610c1a57600080fd5b610c2384610be9565b9250610c3160208501610be9565b9150604084013590509250925092565b600060208284031215610c5357600080fd5b5035919050565b600060208083018184528085518083526040860191506040848202870101925083870160005b82811015610cae57603f19888603018452610c9c858351610ba3565b94509285019290850190600101610c80565b5092979650505050505050565b600060208284031215610ccd57600080fd5b610be282610be9565b6020808252825182820181905260009190848201906040850190845b81811015610d0e57835183529284019291840191600101610cf2565b50909695505050505050565b60008060408385031215610d2d57600080fd5b82359150610d3d60208401610be9565b90509250929050565b60e060020a634e487b7102600052604160045260246000fd5b600060208284031215610d7157600080fd5b813567ffffffffffffffff80821115610d8957600080fd5b818401915084601f830112610d9d57600080fd5b813581811115610daf57610daf610d46565b604051601f8201601f19908116603f01168101908382118183101715610dd757610dd7610d46565b81604052828152876020848701011115610df057600080fd5b826020860160208301376000928101602001929092525095945050505050565b600281046001821680610e2457607f821691505b602082108103610e475760e060020a634e487b7102600052602260045260246000fd5b50919050565b60e060020a634e487b7102600052603260045260246000fd5b60008251610e78818460208701610b7f565b9190910192915050565b601f8211156102af576000818152602081206020601f86010481016020861015610ea95750805b6020601f860104820191505b81811015610ec857828155600101610eb5565b505050505050565b815167ffffffffffffffff811115610eea57610eea610d46565b610efe81610ef88454610e10565b84610e82565b602080601f831160018114610f375760008415610f1b5750858301515b60028086026008870290910a6000190419821617865550610ec8565b600085815260208120601f198616915b82811015610f6657888601518255948401946001909101908401610f47565b5085821015610f8657878501516008601f88160260020a60001904191681555b5050505050600202600101905550565b60e060020a634e487b7102600052601160045260246000fd5b8181038181111561052757610527610f96565b8082018082111561052757610527610f9656fea2646970667358221220fa2e545561cbf6eaab97917808d17feab7bf5849e25d480c30e270f68800109464736f6c63430008150033",
  "immutableReferences": {},
  "source": "// SPDX-License-Identifier: MIT \r\npragma solidity ^0.8.0;\r\n\r\nimport './ERC721Connector.sol';\r\n\r\ncontract KryptoBird is ERC721Connector {\r\n\r\n    string [] public kryptobirdz; // array to store our nfts\r\n\r\n    mapping(string => bool) _kryptoBirdzExists;\r\n\r\n    function mint(string memory _kryptobird) public {\r\n       // uint _id = KryptoBirdz.push(_kryptoBird); deprecated cause .push no longer returns lenght\r\n       require(!_kryptoBirdzExists[_kryptobird], \"Error kryptobird already exist\");\r\n       kryptobirdz.push(_kryptobird);\r\n       uint _id = kryptobirdz.length - 1;\r\n       \r\n        _mint(msg.sender, _id);\r\n        _kryptoBirdzExists[_kryptobird] = true;\r\n\r\n\r\n    }\r\n    function listOfBirdz() external view returns(string[] memory){\r\n        return kryptobirdz;\r\n    }\r\n   \r\n    constructor() ERC721Connector('KryptoBird', 'KBIRDZ') {\r\n        \r\n    }\r\n}\r\n\r\n\r\n",
  "sourcePath": "C:\\Users\\hector\\OneDrive\\Escritorio\\nft_marketplace repo\\nft-marketplace-starter-kit\\src\\contracts\\KriptoBirdz.sol",
  "compiler": {
    "name": "solc",
    "version": "0.8.21+commit.d9974bed.Emscripten.clang"
  },
  "schemaVersion": "3.4.14",
  "updatedAt": "2023-07-29T17:28:50.068Z",
  "networkType": "ethereum",
  "devdoc": {
    "kind": "dev",
    "methods": {
      "balanceOf(address)": {
        "details": "NFTs assigned to the zero address are considered invalid, and this  function throws for queries about the zero address.",
        "params": {
          "_owner": "An address for whom to query the balance"
        },
        "returns": {
          "_0": "The number of NFTs owned by `_owner`, possibly zero"
        }
      },
      "ownerOf(uint256)": {
        "details": "NFTs assigned to zero address are considered invalid, and queries  about them do throw.",
        "params": {
          "_tokenId": "The identifier for an NFT"
        },
        "returns": {
          "_0": "The address of the owner of the NFT"
        }
      },
      "totalSupply()": {
        "returns": {
          "_0": "A count of valid NFTs tracked by this contract, where each one of  them has an assigned and queryable owner not equal to the zero address"
        }
      }
    },
    "version": 1
  },
  "userdoc": {
    "kind": "user",
    "methods": {
      "balanceOf(address)": {
        "notice": "Count all NFTs assigned to an owner"
      },
      "ownerOf(uint256)": {
        "notice": "Find the owner of an NFT"
      },
      "totalSupply()": {
        "notice": "Count NFTs tracked by this contract"
      }
    },
    "version": 1
  }
}