{
  "contractName": "KryptoBird",
  "abi": [
    {
      "inputs": [],
      "stateMutability": "nonpayable",
      "type": "constructor"
    },
    {
      "anonymous": false,
      "inputs": [
        {
          "indexed": true,
          "internalType": "address",
          "name": "address_from",
          "type": "address"
        },
        {
          "indexed": true,
          "internalType": "address",
          "name": "address_to",
          "type": "address"
        },
        {
          "indexed": true,
          "internalType": "uint256",
          "name": "tokenId",
          "type": "uint256"
        }
      ],
      "name": "Transfer",
      "type": "event"
    },
    {
      "inputs": [
        {
          "internalType": "address",
          "name": "_owner",
          "type": "address"
        }
      ],
      "name": "balanceOf",
      "outputs": [
        {
          "internalType": "uint256",
          "name": "",
          "type": "uint256"
        }
      ],
      "stateMutability": "view",
      "type": "function",
      "constant": true
    },
    {
      "inputs": [
        {
          "internalType": "uint256",
          "name": "",
          "type": "uint256"
        }
      ],
      "name": "kryptobirdz",
      "outputs": [
        {
          "internalType": "string",
          "name": "",
          "type": "string"
        }
      ],
      "stateMutability": "view",
      "type": "function",
      "constant": true
    },
    {
      "inputs": [],
      "name": "name",
      "outputs": [
        {
          "internalType": "string",
          "name": "",
          "type": "string"
        }
      ],
      "stateMutability": "view",
      "type": "function",
      "constant": true
    },
    {
      "inputs": [
        {
          "internalType": "uint256",
          "name": "_tokenId",
          "type": "uint256"
        }
      ],
      "name": "ownerOf",
      "outputs": [
        {
          "internalType": "address",
          "name": "",
          "type": "address"
        }
      ],
      "stateMutability": "view",
      "type": "function",
      "constant": true
    },
    {
      "inputs": [],
      "name": "symbol",
      "outputs": [
        {
          "internalType": "string",
          "name": "",
          "type": "string"
        }
      ],
      "stateMutability": "view",
      "type": "function",
      "constant": true
    },
    {
      "inputs": [
        {
          "internalType": "string",
          "name": "_kryptobird",
          "type": "string"
        }
      ],
      "name": "mint",
      "outputs": [],
      "stateMutability": "nonpayable",
      "type": "function"
    }
  ],
  "bytecode": "0x608060405234801561001057600080fd5b506040518060400160405280600a81526020017f4b727970746f42697264000000000000000000000000000000000000000000008152506040518060400160405280600681526020017f4b424952445a00000000000000000000000000000000000000000000000000008152508181816000908161008e9190610176565b50600161009b8282610176565b505050505061023c565b7f4e487b7100000000000000000000000000000000000000000000000000000000600052604160045260246000fd5b6002810460018216806100e857607f821691505b602082108103610121577f4e487b7100000000000000000000000000000000000000000000000000000000600052602260045260246000fd5b50919050565b601f821115610171576000818152602081206020601f8601048101602086101561014e5750805b6020601f860104820191505b8181101561016d5782815560010161015a565b5050505b505050565b815167ffffffffffffffff811115610190576101906100a5565b6101a48161019e84546100d4565b84610127565b602080601f8311600181146101dd57600084156101c15750858301515b60028086026008870290910a600019041982161786555061016d565b600085815260208120601f198616915b8281101561020c578886015182559484019460019091019084016101ed565b508582101561022c57878501516008601f88160260020a60001904191681555b5050505050600202600101905550565b6109638061024b6000396000f3fe608060405234801561001057600080fd5b506004361061007e577c0100000000000000000000000000000000000000000000000000000000600035046306fdde03811461008357806336a129a3146100a15780636352211e146100b457806370a08231146100df57806395d89b4114610100578063d85d3d2714610108575b600080fd5b61008b61011d565b60405161009891906105f8565b60405180910390f35b61008b6100af36600461062b565b6101af565b6100c76100c236600461062b565b61025b565b604051600160a060020a039091168152602001610098565b6100f26100ed366004610644565b6102ce565b604051908152602001610098565b61008b610345565b61011b6101163660046106a3565b610354565b005b60606000805461012c90610754565b80601f016020809104026020016040519081016040528092919081815260200182805461015890610754565b80156101a55780601f1061017a576101008083540402835291602001916101a5565b820191906000526020600020905b81548152906001019060200180831161018857829003601f168201915b5050505050905090565b600481815481106101bf57600080fd5b9060005260206000200160009150905080546101da90610754565b80601f016020809104026020016040519081016040528092919081815260200182805461020690610754565b80156102535780601f1061022857610100808354040283529160200191610253565b820191906000526020600020905b81548152906001019060200180831161023657829003601f168201915b505050505081565b600081815260026020526040812054600160a060020a0316806102c85760405160e560020a62461bcd02815260206004820181905260248201527f7468726f77696e6720796f75206675636b696e67206f75742c206d617465203260448201526064015b60405180910390fd5b92915050565b6000600160a060020a0382166103295760405160e560020a62461bcd02815260206004820152601e60248201527f7468726f77696e6720796f75206675636b696e67206f75742c206d617465000060448201526064016102bf565b50600160a060020a031660009081526003602052604090205490565b60606001805461012c90610754565b60058160405161036491906107a7565b9081526040519081900360200190205460ff16156103c75760405160e560020a62461bcd02815260206004820152601e60248201527f4572726f72206b727970746f6269726420616c7265616479206578697374000060448201526064016102bf565b600480546001810182556000919091527f8a35acfbc15ff81a39ae7d344fd709f28e8600b4aa8c65c6b64bfe7fe36bd19b016104038282610812565b5060045460009061041690600190610907565b90506104223382610458565b600160058360405161043491906107a7565b908152604051908190036020019020805491151560ff199092169190911790555050565b600160a060020a0382166104b15760405160e560020a62461bcd02815260206004820152601b60248201527f696e76616c6964206d696e742061646472657373206675636b6574000000000060448201526064016102bf565b600081815260026020526040902054600160a060020a03161561053f5760405160e560020a62461bcd02815260206004820152602760248201527f796f7520617265206c617465206d6174652c20746f6b656e20616c726561647960448201527f206d696e7465640000000000000000000000000000000000000000000000000060648201526084016102bf565b6000818152600260209081526040808320805473ffffffffffffffffffffffffffffffffffffffff1916600160a060020a03871690811790915583526003909152812080546001929061059390849061091a565b90915550506040518190600160a060020a038416906000907fddf252ad1be2c89b69c2b068fc378daa952ba7f163c4a11628f55a4df523b3ef908290a45050565b60005b838110156105ef5781810151838201526020016105d7565b50506000910152565b60208152600082518060208401526106178160408501602087016105d4565b601f01601f19169190910160400192915050565b60006020828403121561063d57600080fd5b5035919050565b60006020828403121561065657600080fd5b8135600160a060020a038116811461066d57600080fd5b9392505050565b7f4e487b7100000000000000000000000000000000000000000000000000000000600052604160045260246000fd5b6000602082840312156106b557600080fd5b813567ffffffffffffffff808211156106cd57600080fd5b818401915084601f8301126106e157600080fd5b8135818111156106f3576106f3610674565b604051601f8201601f19908116603f0116810190838211818310171561071b5761071b610674565b8160405282815287602084870101111561073457600080fd5b826020860160208301376000928101602001929092525095945050505050565b60028104600182168061076857607f821691505b6020821081036107a1577f4e487b7100000000000000000000000000000000000000000000000000000000600052602260045260246000fd5b50919050565b600082516107b98184602087016105d4565b9190910192915050565b601f82111561080d576000818152602081206020601f860104810160208610156107ea5750805b6020601f860104820191505b81811015610809578281556001016107f6565b5050505b505050565b815167ffffffffffffffff81111561082c5761082c610674565b6108408161083a8454610754565b846107c3565b602080601f831160018114610879576000841561085d5750858301515b60028086026008870290910a6000190419821617865550610809565b600085815260208120601f198616915b828110156108a857888601518255948401946001909101908401610889565b50858210156108c857878501516008601f88160260020a60001904191681555b5050505050600202600101905550565b7f4e487b7100000000000000000000000000000000000000000000000000000000600052601160045260246000fd5b818103818111156102c8576102c86108d8565b808201808211156102c8576102c86108d856fea2646970667358221220f0fc4e8418bddd831d9f8b1dfa5ea4f490f0ee1fedb9a9012ca24522a00f2beb64736f6c63430008150033",
  "immutableReferences": {},
  "source": "// SPDX-License-Identifier: MIT \r\npragma solidity ^0.8.0;\r\n\r\nimport './ERC721Connector.sol';\r\n\r\ncontract KryptoBird is ERC721Connector {\r\n\r\n    string [] public kryptobirdz; // array to store our nfts\r\n\r\n    mapping(string => bool) _kryptoBirdzExists;\r\n\r\n    function mint(string memory _kryptobird) public {\r\n       // uint _id = KryptoBirdz.push(_kryptoBird); deprecated cause .push no longer returns lenght\r\n       require(!_kryptoBirdzExists[_kryptobird], \"Error kryptobird already exist\");\r\n       kryptobirdz.push(_kryptobird);\r\n       uint _id = kryptobirdz.length - 1;\r\n       \r\n        _mint(msg.sender, _id);\r\n        _kryptoBirdzExists[_kryptobird] = true;\r\n\r\n\r\n    }\r\n   \r\n    constructor() ERC721Connector('KryptoBird', 'KBIRDZ') {\r\n        \r\n    }\r\n}\r\n\r\n\r\n",
  "sourcePath": "C:\\Users\\hector\\OneDrive\\Escritorio\\nft_marketplace repo\\nft-marketplace-starter-kit\\src\\contracts\\KriptoBirdz.sol",
  "compiler": {
    "name": "solc",
    "version": "0.8.21+commit.d9974bed.Emscripten.clang"
  },
  "schemaVersion": "3.4.14",
  "updatedAt": "2023-07-26T10:56:28.928Z",
  "networkType": "ethereum",
  "devdoc": {
    "kind": "dev",
    "methods": {
      "balanceOf(address)": {
        "details": "NFTs assigned to the zero address are considered invalid, and this  function throws for queries about the zero address.",
        "params": {
          "_owner": "An address for whom to query the balance"
        },
        "returns": {
          "_0": "The number of NFTs owned by `_owner`, possibly zero"
        }
      },
      "ownerOf(uint256)": {
        "details": "NFTs assigned to zero address are considered invalid, and queries  about them do throw.",
        "params": {
          "_tokenId": "The identifier for an NFT"
        },
        "returns": {
          "_0": "The address of the owner of the NFT"
        }
      }
    },
    "version": 1
  },
  "userdoc": {
    "kind": "user",
    "methods": {
      "balanceOf(address)": {
        "notice": "Count all NFTs assigned to an owner"
      },
      "ownerOf(uint256)": {
        "notice": "Find the owner of an NFT"
      }
    },
    "version": 1
  }
}