{
  "contractName": "KryptoBird",
  "abi": [
    {
      "inputs": [],
      "stateMutability": "nonpayable",
      "type": "constructor"
    },
    {
      "anonymous": false,
      "inputs": [
        {
          "indexed": true,
          "internalType": "address",
          "name": "address_from",
          "type": "address"
        },
        {
          "indexed": true,
          "internalType": "address",
          "name": "address_to",
          "type": "address"
        },
        {
          "indexed": true,
          "internalType": "uint256",
          "name": "tokenId",
          "type": "uint256"
        }
      ],
      "name": "Transfer",
      "type": "event"
    },
    {
      "inputs": [
        {
          "internalType": "uint256",
          "name": "",
          "type": "uint256"
        }
      ],
      "name": "kryptobirdz",
      "outputs": [
        {
          "internalType": "string",
          "name": "",
          "type": "string"
        }
      ],
      "stateMutability": "view",
      "type": "function",
      "constant": true
    },
    {
      "inputs": [],
      "name": "name",
      "outputs": [
        {
          "internalType": "string",
          "name": "",
          "type": "string"
        }
      ],
      "stateMutability": "view",
      "type": "function",
      "constant": true
    },
    {
      "inputs": [],
      "name": "symbol",
      "outputs": [
        {
          "internalType": "string",
          "name": "",
          "type": "string"
        }
      ],
      "stateMutability": "view",
      "type": "function",
      "constant": true
    },
    {
      "inputs": [
        {
          "internalType": "string",
          "name": "_kryptobird",
          "type": "string"
        }
      ],
      "name": "mint",
      "outputs": [],
      "stateMutability": "nonpayable",
      "type": "function"
    }
  ],
  "bytecode": "0x608060405234801561001057600080fd5b506040518060400160405280600a81526020017f4b727970746f42697264000000000000000000000000000000000000000000008152506040518060400160405280600681526020017f4b424952445a00000000000000000000000000000000000000000000000000008152508181816000908161008e9190610176565b50600161009b8282610176565b505050505061023c565b7f4e487b7100000000000000000000000000000000000000000000000000000000600052604160045260246000fd5b6002810460018216806100e857607f821691505b602082108103610121577f4e487b7100000000000000000000000000000000000000000000000000000000600052602260045260246000fd5b50919050565b601f821115610171576000818152602081206020601f8601048101602086101561014e5750805b6020601f860104820191505b8181101561016d5782815560010161015a565b5050505b505050565b815167ffffffffffffffff811115610190576101906100a5565b6101a48161019e84546100d4565b84610127565b602080601f8311600181146101dd57600084156101c15750858301515b60028086026008870290910a600019041982161786555061016d565b600085815260208120601f198616915b8281101561020c578886015182559484019460019091019084016101ed565b508582101561022c57878501516008601f88160260020a60001904191681555b5050505050600202600101905550565b61086b8061024b6000396000f3fe608060405234801561001057600080fd5b5060043610610068577c0100000000000000000000000000000000000000000000000000000000600035046306fdde03811461006d57806336a129a31461008b57806395d89b411461009e578063d85d3d27146100a6575b600080fd5b6100756100bb565b604051610082919061052a565b60405180910390f35b61007561009936600461055d565b61014d565b6100756101f9565b6100b96100b43660046105a5565b610208565b005b6060600080546100ca90610656565b80601f01602080910402602001604051908101604052809291908181526020018280546100f690610656565b80156101435780601f1061011857610100808354040283529160200191610143565b820191906000526020600020905b81548152906001019060200180831161012657829003601f168201915b5050505050905090565b6004818154811061015d57600080fd5b90600052602060002001600091509050805461017890610656565b80601f01602080910402602001604051908101604052809291908181526020018280546101a490610656565b80156101f15780601f106101c6576101008083540402835291602001916101f1565b820191906000526020600020905b8154815290600101906020018083116101d457829003601f168201915b505050505081565b6060600180546100ca90610656565b60058160405161021891906106a9565b9081526040519081900360200190205460ff1615610297576040517f08c379a000000000000000000000000000000000000000000000000000000000815260206004820152601e60248201527f4572726f72206b727970746f6269726420616c7265616479206578697374000060448201526064015b60405180910390fd5b600480546001810182556000919091527f8a35acfbc15ff81a39ae7d344fd709f28e8600b4aa8c65c6b64bfe7fe36bd19b016102d38282610714565b506004546000906102e690600190610809565b90506102f23382610328565b600160058360405161030491906106a9565b908152604051908190036020019020805491151560ff199092169190911790555050565b73ffffffffffffffffffffffffffffffffffffffff82166103a5576040517f08c379a000000000000000000000000000000000000000000000000000000000815260206004820152601b60248201527f696e76616c6964206d696e742061646472657373206675636b65740000000000604482015260640161028e565b60008181526002602052604090205473ffffffffffffffffffffffffffffffffffffffff1615610457576040517f08c379a000000000000000000000000000000000000000000000000000000000815260206004820152602760248201527f796f7520617265206c617465206d6174652c20746f6b656e20616c726561647960448201527f206d696e74656400000000000000000000000000000000000000000000000000606482015260840161028e565b6000818152600260209081526040808320805473ffffffffffffffffffffffffffffffffffffffff191673ffffffffffffffffffffffffffffffffffffffff87169081179091558352600390915281208054600192906104b8908490610822565b9091555050604051819073ffffffffffffffffffffffffffffffffffffffff8416906000907fddf252ad1be2c89b69c2b068fc378daa952ba7f163c4a11628f55a4df523b3ef908290a45050565b60005b83811015610521578181015183820152602001610509565b50506000910152565b6020815260008251806020840152610549816040850160208701610506565b601f01601f19169190910160400192915050565b60006020828403121561056f57600080fd5b5035919050565b7f4e487b7100000000000000000000000000000000000000000000000000000000600052604160045260246000fd5b6000602082840312156105b757600080fd5b813567ffffffffffffffff808211156105cf57600080fd5b818401915084601f8301126105e357600080fd5b8135818111156105f5576105f5610576565b604051601f8201601f19908116603f0116810190838211818310171561061d5761061d610576565b8160405282815287602084870101111561063657600080fd5b826020860160208301376000928101602001929092525095945050505050565b60028104600182168061066a57607f821691505b6020821081036106a3577f4e487b7100000000000000000000000000000000000000000000000000000000600052602260045260246000fd5b50919050565b600082516106bb818460208701610506565b9190910192915050565b601f82111561070f576000818152602081206020601f860104810160208610156106ec5750805b6020601f860104820191505b8181101561070b578281556001016106f8565b5050505b505050565b815167ffffffffffffffff81111561072e5761072e610576565b6107428161073c8454610656565b846106c5565b602080601f83116001811461077b576000841561075f5750858301515b60028086026008870290910a600019041982161786555061070b565b600085815260208120601f198616915b828110156107aa5788860151825594840194600190910190840161078b565b50858210156107ca57878501516008601f88160260020a60001904191681555b5050505050600202600101905550565b7f4e487b7100000000000000000000000000000000000000000000000000000000600052601160045260246000fd5b8181038181111561081c5761081c6107da565b92915050565b8082018082111561081c5761081c6107da56fea26469706673582212208d9d9336f2bc8b10cfa97e110e7207cdefd6c6041dbdfadbd3286282c41b4f7a64736f6c63430008150033",
  "immutableReferences": {},
  "source": "// SPDX-License-Identifier: MIT \r\npragma solidity ^0.8.0;\r\n\r\nimport './ERC721Connector.sol';\r\n\r\ncontract KryptoBird is ERC721Connector {\r\n\r\n    string [] public kryptobirdz; // array to store our nfts\r\n\r\n    mapping(string => bool) _kryptoBirdzExists;\r\n\r\n    function mint(string memory _kryptobird) public {\r\n       // uint _id = KryptoBirdz.push(_kryptoBird); deprecated cause .push no longer returns lenght\r\n       require(!_kryptoBirdzExists[_kryptobird], \"Error kryptobird already exist\");\r\n       kryptobirdz.push(_kryptobird);\r\n       uint _id = kryptobirdz.length - 1;\r\n       \r\n        _mint(msg.sender, _id);\r\n        _kryptoBirdzExists[_kryptobird] = true;\r\n\r\n\r\n    }\r\n   \r\n    constructor() ERC721Connector('KryptoBird', 'KBIRDZ') {\r\n        \r\n    }\r\n}\r\n\r\n\r\n",
  "sourcePath": "C:\\Users\\hector\\OneDrive\\Escritorio\\nft_marketplace repo\\nft-marketplace-starter-kit\\src\\contracts\\KriptoBirdz.sol",
  "compiler": {
    "name": "solc",
    "version": "0.8.21+commit.d9974bed.Emscripten.clang"
  },
  "schemaVersion": "3.4.14",
  "updatedAt": "2023-07-24T18:15:22.390Z",
  "networkType": "ethereum",
  "devdoc": {
    "kind": "dev",
    "methods": {},
    "version": 1
  },
  "userdoc": {
    "kind": "user",
    "methods": {},
    "version": 1
  }
}