{
  "contractName": "KryptoBird",
  "abi": [
    {
      "inputs": [],
      "stateMutability": "nonpayable",
      "type": "constructor"
    },
    {
      "anonymous": false,
      "inputs": [
        {
          "indexed": true,
          "internalType": "address",
          "name": "address_from",
          "type": "address"
        },
        {
          "indexed": true,
          "internalType": "address",
          "name": "address_to",
          "type": "address"
        },
        {
          "indexed": true,
          "internalType": "uint256",
          "name": "tokenId",
          "type": "uint256"
        }
      ],
      "name": "Transfer",
      "type": "event"
    },
    {
      "inputs": [
        {
          "internalType": "address",
          "name": "_owner",
          "type": "address"
        }
      ],
      "name": "balanceOf",
      "outputs": [
        {
          "internalType": "uint256",
          "name": "",
          "type": "uint256"
        }
      ],
      "stateMutability": "view",
      "type": "function",
      "constant": true
    },
    {
      "inputs": [
        {
          "internalType": "uint256",
          "name": "",
          "type": "uint256"
        }
      ],
      "name": "kryptobirdz",
      "outputs": [
        {
          "internalType": "string",
          "name": "",
          "type": "string"
        }
      ],
      "stateMutability": "view",
      "type": "function",
      "constant": true
    },
    {
      "inputs": [
        {
          "internalType": "address",
          "name": "owner",
          "type": "address"
        }
      ],
      "name": "listOfTokenOwned",
      "outputs": [
        {
          "internalType": "uint256[]",
          "name": "",
          "type": "uint256[]"
        }
      ],
      "stateMutability": "view",
      "type": "function",
      "constant": true
    },
    {
      "inputs": [],
      "name": "name",
      "outputs": [
        {
          "internalType": "string",
          "name": "",
          "type": "string"
        }
      ],
      "stateMutability": "view",
      "type": "function",
      "constant": true
    },
    {
      "inputs": [],
      "name": "numberOftokensOwned",
      "outputs": [
        {
          "internalType": "uint256",
          "name": "",
          "type": "uint256"
        }
      ],
      "stateMutability": "view",
      "type": "function",
      "constant": true
    },
    {
      "inputs": [
        {
          "internalType": "uint256",
          "name": "_tokenId",
          "type": "uint256"
        }
      ],
      "name": "ownerOf",
      "outputs": [
        {
          "internalType": "address",
          "name": "",
          "type": "address"
        }
      ],
      "stateMutability": "view",
      "type": "function",
      "constant": true
    },
    {
      "inputs": [],
      "name": "symbol",
      "outputs": [
        {
          "internalType": "string",
          "name": "",
          "type": "string"
        }
      ],
      "stateMutability": "view",
      "type": "function",
      "constant": true
    },
    {
      "inputs": [
        {
          "internalType": "uint256",
          "name": "index",
          "type": "uint256"
        }
      ],
      "name": "tokenByIndex",
      "outputs": [
        {
          "internalType": "uint256",
          "name": "",
          "type": "uint256"
        }
      ],
      "stateMutability": "view",
      "type": "function",
      "constant": true
    },
    {
      "inputs": [
        {
          "internalType": "uint256",
          "name": "index",
          "type": "uint256"
        },
        {
          "internalType": "address",
          "name": "owner",
          "type": "address"
        }
      ],
      "name": "tokenOfOwnerByIndex",
      "outputs": [
        {
          "internalType": "uint256",
          "name": "",
          "type": "uint256"
        }
      ],
      "stateMutability": "view",
      "type": "function",
      "constant": true
    },
    {
      "inputs": [],
      "name": "totalSupply",
      "outputs": [
        {
          "internalType": "uint256",
          "name": "",
          "type": "uint256"
        }
      ],
      "stateMutability": "view",
      "type": "function",
      "constant": true
    },
    {
      "inputs": [
        {
          "internalType": "string",
          "name": "_kryptobird",
          "type": "string"
        }
      ],
      "name": "mint",
      "outputs": [],
      "stateMutability": "nonpayable",
      "type": "function"
    },
    {
      "inputs": [],
      "name": "listOfBirdz",
      "outputs": [
        {
          "internalType": "string[]",
          "name": "",
          "type": "string[]"
        }
      ],
      "stateMutability": "view",
      "type": "function",
      "constant": true
    }
  ],
  "bytecode": "0x60806040523480156200001157600080fd5b506040518060400160405280600a81526020017f4b727970746f42697264000000000000000000000000000000000000000000008152506040518060400160405280600681526020017f4b424952445a00000000000000000000000000000000000000000000000000008152508181816000908162000091919062000182565b506001620000a0828262000182565b505050505062000255565b7f4e487b7100000000000000000000000000000000000000000000000000000000600052604160045260246000fd5b600281046001821680620000ef57607f821691505b60208210810362000129577f4e487b7100000000000000000000000000000000000000000000000000000000600052602260045260246000fd5b50919050565b601f8211156200017d576000818152602081206020601f86010481016020861015620001585750805b6020601f860104820191505b81811015620001795782815560010162000164565b5050505b505050565b815167ffffffffffffffff8111156200019f576200019f620000ab565b620001b781620001b08454620000da565b846200012f565b602080601f831160018114620001f35760008415620001d65750858301515b60028086026008870290910a600019041982161786555062000179565b600085815260208120601f198616915b82811015620002245788860151825594840194600190910190840162000203565b50858210156200024557878501516008601f88160260020a60001904191681555b5050505050600202600101905550565b610de280620002656000396000f3fe608060405234801561001057600080fd5b50600436106100d1576000357c01000000000000000000000000000000000000000000000000000000009004806370a082311161008e57806370a082311461016c5780639240f7a01461017f57806395d89b411461019f578063a5bb8275146101a7578063c55d3d29146101ba578063d85d3d27146101cf57600080fd5b806306fdde03146100d657806318160ddd146100f457806336a129a314610106578063427a4977146101195780634f6ccce71461012e5780636352211e14610141575b600080fd5b6100de6101e4565b6040516100eb91906109e1565b60405180910390f35b6004545b6040519081526020016100eb565b6100de6101143660046109fb565b610276565b610121610322565b6040516100eb9190610a14565b6100f861013c3660046109fb565b6103fb565b61015461014f3660046109fb565b610481565b604051600160a060020a0390911681526020016100eb565b6100f861017a366004610a91565b6104ef565b61019261018d366004610a91565b610566565b6040516100eb9190610aac565b6100de6105d2565b6100f86101b5366004610af0565b6105e1565b336000908152600660205260409020546100f8565b6101e26101dd366004610b35565b61067a565b005b6060600080546101f390610be6565b80601f016020809104026020016040519081016040528092919081815260200182805461021f90610be6565b801561026c5780601f106102415761010080835404028352916020019161026c565b820191906000526020600020905b81548152906001019060200180831161024f57829003601f168201915b5050505050905090565b6008818154811061028657600080fd5b9060005260206000200160009150905080546102a190610be6565b80601f01602080910402602001604051908101604052809291908181526020018280546102cd90610be6565b801561031a5780601f106102ef5761010080835404028352916020019161031a565b820191906000526020600020905b8154815290600101906020018083116102fd57829003601f168201915b505050505081565b60606008805480602002602001604051908101604052809291908181526020016000905b828210156103f257838290600052602060002001805461036590610be6565b80601f016020809104026020016040519081016040528092919081815260200182805461039190610be6565b80156103de5780601f106103b3576101008083540402835291602001916103de565b820191906000526020600020905b8154815290600101906020018083116103c157829003601f168201915b505050505081526020019060010190610346565b50505050905090565b600061040660045490565b821061045c5760405160e560020a62461bcd02815260206004820152601c60248201527f676c6f62616c20696e646578206973206f7574206f662072656163680000000060448201526064015b60405180910390fd5b6004828154811061046f5761046f610c23565b90600052602060002001549050919050565b600081815260026020526040812054600160a060020a0316806104e95760405160e560020a62461bcd02815260206004820181905260248201527f7468726f77696e6720796f75206675636b696e67206f75742c206d61746520326044820152606401610453565b92915050565b6000600160a060020a03821661054a5760405160e560020a62461bcd02815260206004820152601e60248201527f7468726f77696e6720796f75206675636b696e67206f75742c206d61746500006044820152606401610453565b50600160a060020a031660009081526003602052604090205490565b600160a060020a0381166000908152600660209081526040918290208054835181840281018401909452808452606093928301828280156105c657602002820191906000526020600020905b8154815260200190600101908083116105b2575b50505050509050919050565b6060600180546101f390610be6565b60006105ec826104ef565b831061063d5760405160e560020a62461bcd02815260206004820152601b60248201527f6f776e657220696e646578206973206f7574206f6620726561636800000000006044820152606401610453565b600160a060020a038216600090815260066020526040902080548490811061066757610667610c23565b9060005260206000200154905092915050565b60098160405161068a9190610c3c565b9081526040519081900360200190205460ff16156106ed5760405160e560020a62461bcd02815260206004820152601e60248201527f4572726f72206b727970746f6269726420616c726561647920657869737400006044820152606401610453565b600880546001810182556000919091527ff3f7a9fe364faab93b216da50a3214154f22a0a2b415b23a84c8169e8b636ee3016107298282610ca7565b5060085460009061073c90600190610d86565b9050610748338261077e565b600160098360405161075a9190610c3c565b908152604051908190036020019020805491151560ff199092169190911790555050565b6107888282610815565b6107d081600480546000838152600560205260408120829055600182018355919091527f8a35acfbc15ff81a39ae7d344fd709f28e8600b4aa8c65c6b64bfe7fe36bd19b0155565b6108118183600160a060020a031660009081526006602081815260408084208054868652600784529185208290559282526001810183559183529091200155565b5050565b600160a060020a03821661086e5760405160e560020a62461bcd02815260206004820152601b60248201527f696e76616c6964206d696e742061646472657373206675636b657400000000006044820152606401610453565b600081815260026020526040902054600160a060020a0316156108fc5760405160e560020a62461bcd02815260206004820152602760248201527f796f7520617265206c617465206d6174652c20746f6b656e20616c726561647960448201527f206d696e746564000000000000000000000000000000000000000000000000006064820152608401610453565b6000818152600260209081526040808320805473ffffffffffffffffffffffffffffffffffffffff1916600160a060020a038716908117909155835260039091528120805460019290610950908490610d99565b90915550506040518190600160a060020a038416906000907fddf252ad1be2c89b69c2b068fc378daa952ba7f163c4a11628f55a4df523b3ef908290a45050565b60005b838110156109ac578181015183820152602001610994565b50506000910152565b600081518084526109cd816020860160208601610991565b601f01601f19169290920160200192915050565b6020815260006109f460208301846109b5565b9392505050565b600060208284031215610a0d57600080fd5b5035919050565b600060208083018184528085518083526040860191506040848202870101925083870160005b82811015610a6857603f19888603018452610a568583516109b5565b94509285019290850190600101610a3a565b5092979650505050505050565b8035600160a060020a0381168114610a8c57600080fd5b919050565b600060208284031215610aa357600080fd5b6109f482610a75565b6020808252825182820181905260009190848201906040850190845b81811015610ae457835183529284019291840191600101610ac8565b50909695505050505050565b60008060408385031215610b0357600080fd5b82359150610b1360208401610a75565b90509250929050565b60e060020a634e487b7102600052604160045260246000fd5b600060208284031215610b4757600080fd5b813567ffffffffffffffff80821115610b5f57600080fd5b818401915084601f830112610b7357600080fd5b813581811115610b8557610b85610b1c565b604051601f8201601f19908116603f01168101908382118183101715610bad57610bad610b1c565b81604052828152876020848701011115610bc657600080fd5b826020860160208301376000928101602001929092525095945050505050565b600281046001821680610bfa57607f821691505b602082108103610c1d5760e060020a634e487b7102600052602260045260246000fd5b50919050565b60e060020a634e487b7102600052603260045260246000fd5b60008251610c4e818460208701610991565b9190910192915050565b601f821115610ca2576000818152602081206020601f86010481016020861015610c7f5750805b6020601f860104820191505b81811015610c9e57828155600101610c8b565b5050505b505050565b815167ffffffffffffffff811115610cc157610cc1610b1c565b610cd581610ccf8454610be6565b84610c58565b602080601f831160018114610d0e5760008415610cf25750858301515b60028086026008870290910a6000190419821617865550610c9e565b600085815260208120601f198616915b82811015610d3d57888601518255948401946001909101908401610d1e565b5085821015610d5d57878501516008601f88160260020a60001904191681555b5050505050600202600101905550565b60e060020a634e487b7102600052601160045260246000fd5b818103818111156104e9576104e9610d6d565b808201808211156104e9576104e9610d6d56fea26469706673582212207b67ea335dd69d4f1e50d0e668eef2e7a9affcad9957c817fb1f9f74787568bb64736f6c63430008150033",
  "immutableReferences": {},
  "source": "// SPDX-License-Identifier: MIT \r\npragma solidity ^0.8.0;\r\n\r\nimport './ERC721Connector.sol';\r\n\r\ncontract KryptoBird is ERC721Connector {\r\n\r\n    string [] public kryptobirdz; // array to store our nfts\r\n\r\n    mapping(string => bool) _kryptoBirdzExists;\r\n\r\n    function mint(string memory _kryptobird) public {\r\n       // uint _id = KryptoBirdz.push(_kryptoBird); deprecated cause .push no longer returns lenght\r\n       require(!_kryptoBirdzExists[_kryptobird], \"Error kryptobird already exist\");\r\n       kryptobirdz.push(_kryptobird);\r\n       uint _id = kryptobirdz.length - 1;\r\n       \r\n        _mint(msg.sender, _id);\r\n        _kryptoBirdzExists[_kryptobird] = true;\r\n\r\n\r\n    }\r\n    function listOfBirdz() external view returns(string[] memory){\r\n        return kryptobirdz;\r\n    }\r\n   \r\n    constructor() ERC721Connector('KryptoBird', 'KBIRDZ') {\r\n        \r\n    }\r\n}\r\n\r\n\r\n",
  "sourcePath": "C:\\Users\\hector\\OneDrive\\Escritorio\\nft_marketplace repo\\nft-marketplace-starter-kit\\src\\contracts\\KriptoBirdz.sol",
  "compiler": {
    "name": "solc",
    "version": "0.8.21+commit.d9974bed.Emscripten.clang"
  },
  "schemaVersion": "3.4.14",
  "updatedAt": "2023-07-29T14:59:01.751Z",
  "networkType": "ethereum",
  "devdoc": {
    "kind": "dev",
    "methods": {
      "balanceOf(address)": {
        "details": "NFTs assigned to the zero address are considered invalid, and this  function throws for queries about the zero address.",
        "params": {
          "_owner": "An address for whom to query the balance"
        },
        "returns": {
          "_0": "The number of NFTs owned by `_owner`, possibly zero"
        }
      },
      "ownerOf(uint256)": {
        "details": "NFTs assigned to zero address are considered invalid, and queries  about them do throw.",
        "params": {
          "_tokenId": "The identifier for an NFT"
        },
        "returns": {
          "_0": "The address of the owner of the NFT"
        }
      },
      "totalSupply()": {
        "returns": {
          "_0": "A count of valid NFTs tracked by this contract, where each one of  them has an assigned and queryable owner not equal to the zero address"
        }
      }
    },
    "version": 1
  },
  "userdoc": {
    "kind": "user",
    "methods": {
      "balanceOf(address)": {
        "notice": "Count all NFTs assigned to an owner"
      },
      "ownerOf(uint256)": {
        "notice": "Find the owner of an NFT"
      },
      "totalSupply()": {
        "notice": "Count NFTs tracked by this contract"
      }
    },
    "version": 1
  }
}